:020000040800F2
:10000000804200205D02000863190008FF16000806
:1000100061190008B1040008591B00080000000025
:10002000000000000000000000000000A101000826
:10003000C104000800000000F5010008851900084F
:1000400077020008770200087702000877020008AC
:100050007702000877020008C3040008770200084E
:1000600077020008C9040008770200087702000838
:10007000770200087702000877020008770200087C
:10008000770200087702000877020008770200086C
:10009000B50400087702000877020008770200081C
:1000A000770200088D1A000877020008770200081E
:1000B000770200087702000877020008770200083C
:1000C000770200087702000877020008770200082C
:1000D000770200087702000877020008770200081C
:1000E000770200087702000877020008770200080C
:1000F00077020008770200087702000877020008FC
:1001000077020008770200087702000877020008EB
:1001100077020008770200087702000877020008DB
:1001200077020008770200087702000877020008CB
:1001300077020008770200087702000877020008BB
:1001400077020008770200087702000877020008AB
:10015000770200087702000877020008770200089B
:10016000770200087702000877020008770200088B
:1001700077020008770200087702000800000000FC
:100180007702000877020008DFF810D000F0ECF8E2
:1001900000480047791B0008AFF300808042002030
:1001A0002B4B19680868B0E8F04F80F30988BFF35B
:1001B0006F8F4FF0000080F311887047000000003F
:1001C00006480068006880F3088862B661B6BFF32D
:1001D0004F8FBFF36F8F00DF00BF00BF08ED00E05F
:1001E000DFF80C00016841F470010160704700BF46
:1001F00088ED00E0EFF30980BFF36F8F144B1A68AE
:100200001EF0100F08BF20ED108A20E9F04F10609B
:1002100008B44FF0500080F31188BFF34F8FBFF345
:100220006F8F02F0F3F84FF0000080F3118808BCE4
:1002300019680868B0E8F04F1EF0100F08BFB0EC66
:10024000108A80F30988BFF36F8F704700BF00BF2B
:1002500028000020EFF30580704700000648804723
:1002600006480047FEE7FEE7FEE7FEE7FEE7FEE79B
:10027000FEE7FEE7FEE7FEE7391A000889010008FD
:100280002DE9F05F0546002092469B4688460646CB
:10029000814640241BE0284641464746224600F05E
:1002A00053F853465A46C01A914110D31146184686
:1002B000224600F03AF82D1A67EB01084F46224615
:1002C0000120002100F031F817EB00094E41201EFB
:1002D000A4F10104DFDC484631462A464346BDE826
:1002E000F09F40EA01039B0703D009E008C9121FF1
:1002F00008C0042AFAD203E011F8013B00F8013BE0
:10030000521EF9D27047D2B201E000F8012B491E0B
:10031000FBD270470022F6E710B513460A460446A2
:100320001946FFF7F0FF204610BD202A04DB203AD3
:1003300000FA02F1002070479140C2F1200320FA38
:1003400003F3194390407047202A04DB203A21FA36
:1003500002F00021704721FA02F3D040C2F12002DE
:100360009140084319467047064C074D06E0E06887
:1003700040F0010394E8070098471034AC42F6D3EC
:10038000FFF706FF2C2B00084C2B0008454910B541
:100390004A6822F440324A604A6843681A434A6015
:1003A00001684A6822F480724A6001684A680369F9
:1003B00042EA03224A6001684A6822F040724A60B9
:1003C00001684A6883681A434A6001688A6822F4AF
:1003D00000628A6001688A68C3681A438A60816A19
:1003E0006FF07062D14201688A6822F070628A60A0
:1003F00001688A680CD0836A1A438A6001688A6837
:1004000022F040528A6001688A68C36A1A4301E098
:1004100022F040528A6001688A6822F002028A60F3
:1004200001688A68836942EA43028A60016A002996
:1004300001684A680FD042F400624A6001684A6865
:1004400022F460424A6001684A68174C436A04EB30
:1004500043331A4301E022F400624A600168CA6A29
:1004600022F47002CA620168CA6A838B0F4C04EBE3
:1004700003531A43CA6201688A6822F400728A60D0
:1004800001688A68036B42EA43228A6001688A68CD
:1004900022F480628A6001688A68406942EA8020AA
:1004A000886010BD0023014000E0FFFF0000F0FF66
:1004B000FEE70000014800F0C0B90000D0000020B5
:1004C0007047012000F090BB082000F08DBB0000B9
:1004D00078B50024009490F83C20012A19D001221C
:1004E00080F83C200A6807230568092A13D9EE68BA
:1004F0000A3A02EB420293409E43EE600B788A6810
:100500000A3B03EB43039A400368DD682A43DA6041
:1005100010E0022078BD2E6902EB420293409E4318
:100520002E610B788A6803EB43039A4003681D69C8
:100530002A431A614A681F23072A13D205686E6B83
:10054000521E02EB820293409E436E630B790A882F
:100550005B1E92B203EB83039A4003685D6B2A43F0
:100560005A6327E005680D2A12D22E6BD21F02EBC8
:10057000820293409E432E630B790A88DB1F92B25E
:1005800003EB83039A4003681D6B2A431A6311E04F
:10059000EE6A0D3A02EB820293409E43EE620B79C3
:1005A0000A880D3B92B203EB83039A400368DD6A2D
:1005B0002A43DA62164B0568144A9D4206D10D683B
:1005C000122D03D1556845F48005556005689D429C
:1005D00018D10B68102B01D0112B13D1536843F4A1
:1005E00000035360096810290CD10A490A4A0968B6
:1005F000B1FBF2F101EB8101490000E0491E0091DD
:100600000029FBD180F83C40002078BD0023014048
:10061000002001402400002040420F000068C06C10
:10062000704770B504004FF0000503D0206C002621
:1006300010B107E0012070BD666484F83C6020467C
:1006400000F01AF8206CC00610D4206C20F48850FA
:1006500040F0020020642046FFF798FE6664206C9C
:1006600020F0020040F00100206400E0012584F841
:100670003C60284670BD000010B586B004461421C9
:100680006846FFF747FE1149206888421CD1104890
:100690000021026842F480720260006800F48070F9
:1006A00005900B481438026842F0010202600068AD
:1006B00000F001000590072000900320CDE9010122
:1006C0006946044800F09CFA06B010BD00200140C5
:1006D00044380240000002402DE9F0410446006821
:1006E0000D4681684FF0000749050BD58068C005AD
:1006F00008D5206C40F02000206484F83C70012074
:10070000BDE8F08100F05AFB06460FE0681C0DD0F2
:1007100025B100F053FB801BA84207D9206C40F0A4
:100720000400206484F83C700320E9E72068006836
:100730008007EBD521686FF012000860206C40F450
:10074000007020642068816811F0405F13D1A169B6
:1007500089B9C16A11F4700F02D0806840050AD4CB
:10076000206C20F480702064206CC00403D4206CC2
:1007700040F0010020640020C2E7000018B500210D
:10078000009190F83C20012A07D0012280F83C20FB
:1007900002689368DB0702D011E0022018BD93685D
:1007A00043F001039360204A204B1268B2FBF3F23E
:1007B00002EB420200E0521E0092002AFBD10268C6
:1007C0009368DB072DD0036C40F20164A34343F42C
:1007D0008073036453685B0505D5036C23F40053F1
:1007E00043F480530364036CDB0404D5436C23F0AF
:1007F0000603436400E0416480F83C100C496FF04C
:100800002203136049680068C90602D0094988427A
:1008100007D1816811F0405F03D1816841F08041C8
:100820008160002018BD00002400002040420F001D
:10083000002301400020014070472DE9F05F05468C
:10084000006800244669D0F804908768D0F80CB09E
:10085000D0F810A0D0F81880F10748D0F90714D0CC
:1008600001218160B80703D5284600F0B5F90CE0F6
:10087000780702D54FF4006407E0380702D54FF43B
:10088000805402E0284600F0A6F9F80516D529683C
:100890004FF480708860B80503D5284600F09EF9B3
:1008A0000CE0780502D544F4005407E0380502D581
:1008B00044F4804402E0284600F08FF9F80316D58E
:1008C00029684FF480308860B80303D5284600F0CB
:1008D00087F90CE0780302D544F4004407E03803BC
:1008E00002D544F4803402E0284600F078F930075D
:1008F00007D55FEACB6004D52968102044F4007462
:10090000C86070074FF0080707D55FEA0B7004D581
:100910002868C760284600F059F9B00706D528684E
:10092000C068800702D0284600F051F9700607D54C
:100930005FEACA6004D52968102044F48064086125
:10094000B00607D55FEA0A7004D528680761284613
:1009500000F03EF9F00606D528680069800702D04D
:10096000284600F036F9B00308D55FEAC96005D51E
:10097000296810204860284600F02CF9F00307D5BC
:100980005FEA097004D528684760284600F029F915
:10099000300446D55FEA497040D5F00504D55FEADA
:1009A000C87001D044F00104B00504D55FEA887036
:1009B00001D544F00204700504D55FEA487001D502
:1009C00044F00404300529D518F0700F26D008F043
:1009D0007000402815D006DC102809D020280AD045
:1009E000302816D10AE050280ED0602811D10EE030
:1009F00044F008040DE044F010040AE044F0200440
:100A000007E044F0400404E044F0800401E044F4D2
:100A100080742868816921F070018161296804204F
:100A20004860002C05D0686A204368622846FFF7BA
:100A300003FFBDE8F09F70B5040003D094F82000D8
:100A400010B104E0012070BD204600F081F820685C
:100A5000016821F00201016000F0B0F905460526A9
:100A600004E000F0ABF9401B0A2811D82068406868
:100A70008007F6D42068016841F00101016000F0B0
:100A80009DF905460BE000F099F9401B0A2806D9AC
:100A9000606A40F40030606284F82060D2E7206829
:100AA0004068C007EFD0207E0128206801683DD053
:100AB00021F080010160607E01282068016838D043
:100AC00021F040010160A07E01282068016833D038
:100AD00021F020010160E07E0128206801682ED00D
:100AE00041F010010160207F01282068016829D0B1
:100AF00021F008010160607F01282068016824D08E
:100B000021F004010160D4E902010843D4E9041290
:100B1000114308436168491E08432168C8610020E9
:100B20006062012084F82000002070BD41F0800147
:100B3000C0E741F04001C5E741F02001CAE721F0DC
:100B40001001CFE741F00801D4E741F00401D9E7F3
:100B500010B586B0044614216846FFF7DBFB184940
:100B60002068884229D117480021026842F00072AB
:100B70000260006800F000700590124810380268AA
:100B800042F002020260006800F0020005904FF49B
:100B9000407000900220CDE901010320039009205C
:100BA00004906946084800F02BF800220521142023
:100BB00000F08EF9142000F07FF906B010BD00009F
:100BC0000064004040380240000402407047704713
:100BD000704770477047704770477047704770475D
:100BE0007047704770470000044910B50A68024218
:100BF00002D00860FFF7F6FF10BD0000143C014072
:100C00002DE9F84FDFF87CB100224FF001084FF0DA
:100C1000030A4FF00F090BF1040E00BF0B6808FA2E
:100C200002F42340A3426ED14D68022D01D0122D53
:100C30000ED1D50800EB850CDCF820505607F70ED6
:100C400009FA07F6B5430E69BE402E43CCF8206082
:100C5000066855000F790AFA05FC07F0030726EA33
:100C60000C06AF40374307604E68012E05D0022EB8
:100C700003D0112E01D0122E0ED18668CF6826EA3D
:100C80000C06AF40374387604668A6430C79C4F32F
:100C90000014944034434460C6688C6826EA0C060D
:100CA000AC403443C4604C68E40065D5364C2568DC
:100CB00045F480452560246822F0030504F480444F
:100CC0000094324C2E19D6F8084895072F0F09FAD0
:100CD00007F5AC432E4DA84201D1002524E02D4D4F
:100CE000A84201D101251FE02B4DA84201D10225C8
:100CF0001AE02A4DA84201D1032515E0284DA8424B
:100D000002D1042510E037E0264DA84201D1052587
:100D10000AE0254DA84201D1062505E0234DA84251
:100D200001D1072500E00825BD402543C6F8085835
:100D3000DBF800405D464E689C43F60300D51C433B
:100D40002C60DEF8004075464E689C43B60300D523
:100D50001C432C600B4D08352C684E689C43F602F2
:100D600000D51C432C60074D0C352C684E689C4305
:100D7000B60200D51C432C60521C102AFFF44EAF63
:100D8000BDE8F88F003C014044380240003001408B
:100D9000000002400004024000080240000C024033
:100DA000001002400014024000180240001C0240E3
:100DB0000AB1816170470904FBE7000001488068BF
:100DC0007047000018000020024881680278114432
:100DD00081607047180000200B4810B5016841F48D
:100DE00000710160016841F480610160016841F4B3
:100DF00080710160032000F08BF8002000F006F8FD
:100E000000F03EF8002010BD003C024010B5014645
:100E100088B00022192000F05BF8192000F04CF88F
:100E200013480024016841F001010160006805A930
:100E300000F001000690684600F014F900F032F965
:100E40000C494000B0FBF1F10C480B4A491E02600E
:100E500040F2E732C0E90324C0E9011400F066FB68
:100E600010B1012008B010BD044800F07BFBF9E789
:100E70004438024040420F00000001405001002071
:100E80000C4882B0016841F480410160006800F4C0
:100E9000804000900748001F016841F080510160C8
:100EA0000068002200F0805000900F21901E02B0D8
:100EB00000F00EB84438024000F01F0201219140BA
:100EC0004009800000F1E020C0F8001170470000E8
:100ED000F0B40E4B1B680C46C3F30223C3F10705A5
:100EE000042D00D90425191D072901D2002300E093
:100EF000DB1E012606FA05F1491E214099409E405D
:100F0000761E16403143F0BC00F02CBD0CED00E025
:100F1000064900F0070208684FF6FF03184040EA50
:100F20000220034A10430860704700000CED00E007
:100F30000000FA052DE9F0470E46050065D0DFF800
:100F40001481D8F80000F7B200F00F00B04207D2C9
:100F500088F80070D8F8000000F00F00B04254D1BB
:100F600028683D4C810712D5400703D5206840F41E
:100F7000E05020602878000703D5206840F46040E6
:100F800020602068A96820F0F000084320602878DD
:100F9000C0072DD0304968680839012812D00228CE
:100FA00013D0032811D00968890700292DDA216898
:100FB00021F0030101432160FFF700FF814641F268
:100FC000883A0EE009688903EFE709688901ECE7D0
:100FD000FFF7F4FEA0EB0901514502D90320BDE85B
:100FE000F0872068696800F00C00B0EB810FEFD14A
:100FF000D8F80010404601F00F01B14207D9077040
:10100000006800F00F00B04201D00120E7E7287827
:10101000400705D52068E96820F4E05008432060C7
:101020002878000706D52068296920F4604040EA46
:10103000C100206000F046F82168084AC1F303119E
:10104000515CC840064908600020FFF7DFFE002021
:10105000C5E70000003C024008380240142B00089D
:10106000240000200F2202600C4A136803F00303DF
:101070004360136803F0F0038360136803F4E053E4
:10108000C36012684FF4E05303EAD20202610448DD
:10109000006800F00F000860704700000838024048
:1010A000003C02400448054900680968044AC1F34D
:1010B0004231515CC840704724000020083802408B
:1010C000242B0008154810B5006810F00C021448D5
:1010D00013D04110042A0FD0082A0ED10F4C241F20
:1010E0002268236802F03F025B0207D52068C0F344
:1010F0008810A0FB010106E0084610BD2168C1F37D
:101100008811A1FB00010023FFF7BAF82168C1F3A1
:101110000141491C4900B0FBF1F010BD0838024004
:101120000024F4002DE9F84F050076D02878DFF888
:10113000F8B2BE4CC00749D0DBF800105846C1F3E6
:101140008101012908D00068C0F3810002280AD17A
:10115000201D0068400206D52068800336D56868E7
:101160000028E2D032E06868B0F5803F10D0B0F5DA
:10117000A02F206810D020F480302060206820F458
:10118000802020606868A0B1FFF718FE06460CE0DA
:10119000206840F48030F4E740F480202060F7E7D6
:1011A000FFF70CFE801B642873D820688003F7D5F6
:1011B0000CE0FFF703FE064605E000BFFFF7FEFD6B
:1011C000801B6428F0D820688003F7D42878DFF8E3
:1011D000608280074FF000093ED5DBF800105846CA
:1011E00011F00C0F09D00068C0F3810002280BD168
:1011F0008D48001F0068400206D42068800715D57E
:10120000E868012809D111E0E868B8B10120C8F800
:101210000000FFF7D3FD064605E002E1FFF7CEFD33
:10122000801B0228C0D820688007F7D5206829696C
:1012300020F0F80040EAC10020600DE0C8F80090FE
:10124000FFF7BCFD064604E0FFF7B8FD801B02284F
:101250001FD820688007F7D42878000722D5724E5F
:10126000744869696C3671B101210160FFF7A6FD10
:10127000074604E0FFF7A2FDC01B022809D830682A
:101280008007F7D50EE0C0F80090FFF797FD0746FE
:1012900005E083E0FFF792FDC01B02287ED830688E
:1012A0008007F7D42878400768D5DFF87CA10027AD
:1012B0000AF1380ADAF80000C0000BD4DAF800109E
:1012C00041F08051CAF80010DAF80000012700F060
:1012D00080500090584E3068C00510D4306840F4FB
:1012E00080703060FFF76AFD009005E0FFF766FD53
:1012F0000099401A022851D83068C005F6D54A4EE8
:10130000A868683601280FD00528306810D020F072
:1013100001003060306820F004003060A868B8B187
:10132000FFF74CFD00900FE0306840F00100F4E75B
:1013300040F004003060F7E7FFF740FD0099411AE4
:1013400041F28830814264D830688007F4D50EE0DD
:10135000FFF734FD009007E0FFF730FD0099411AD8
:1013600041F28830814254D830688007F4D42FB1DC
:10137000DAF8001021F08051CAF80010A869C0B353
:10138000DBF80010C1F3810102294AD00228484647
:1013900007D0C8F86000FFF711FD00E039E005460E
:1013A0003AE04746C8F86000FFF708FD064604E04B
:1013B000FFF704FD801B02282BD820688001F7D49A
:1013C000D5E907010843A96A1C4A490802EB014113
:1013D0006A6A41EA8211084395F82C1040EA0161DB
:1013E0001148001F016001203866FFF7E7FC054641
:1013F00005E014E0FFF7E2FC401B022809D8206852
:101400008001F7D50BE000BFFFF7D8FC401B022896
:1014100002D90320BDE8F88F20688001F4D40020B1
:10142000F8E70120F6E700000838024000380240E3
:1014300000004742800E4742007000400000FFFF5E
:1014400070B5040005D00025A56294F8510010B1D4
:1014500006E0012070BD84F85050204600F030F8BE
:10146000022084F851002068016821F040010160E9
:10147000D4E901010843D4E9031211430843616927
:101480000843218B01F400710843E1690843216A94
:101490000843A16A084321680860A069042101EAA1
:1014A0001040616A0843216848602068C16921F4DE
:1014B0000061C1616565012084F85100002070BDA4
:1014C00010B586B0044614216846FEF723FF134981
:1014D0002068884220D112480021026842F48052DC
:1014E0000260006800F4805005900D4814380268CE
:1014F00042F001020260006800F001000590E02067
:1015000000900220CDE90101032003900520049002
:1015100069460448FFF774FB06B010BD0030014077
:1015200044380240000002407047704710B5040084
:1015300003D094F8390010B107E0012010BD00205D
:1015400084F83800204600F00CF8022084F83900B6
:10155000211D206800F0A0FA012084F83900002045
:1015600010BD70470168CA6842F00102CA60006895
:10157000016841F00101016000207047704770B5BB
:101580000446006801694FF00005C943890715D476
:10159000C168C943890711D4E91E01610120207681
:1015A000206880698007204602D0FFF7E7FF04E04B
:1015B00000F098F8204600F096F82576206801693A
:1015C000C943490717D4C168C943490713D46FF009
:1015D00004010161022020762068806910F4407FB8
:1015E000204602D0FFF7CAFF04E000F07BF8204657
:1015F00000F079F8257620680169C943090716D4F7
:10160000C168C943090712D46FF0080101610420C1
:1016100020762068C0698007204602D0FFF7AEFF21
:1016200004E000F05FF8204600F05DF825762068C1
:101630000169C943C90617D4C168C943C90613D48F
:101640006FF010010161082020762068C06910F455
:10165000407F204602D0FFF791FF04E000F042F8FF
:10166000204600F040F8257620680169C943C90783
:1016700008D1C168C943C90704D1891E0161204648
:1016800000F032F820680169C943090609D4C1682D
:10169000C943090605D46FF0800101612046FFF7B8
:1016A00043FF20680169C943490609D4C168C94399
:1016B000490605D46FF040010161204600F01EF894
:1016C00020680169C94389060BD4C168C9438906EA
:1016D00007D46FF0200101612046BDE87040FFF79C
:1016E00024BF70BD7047704700680349884201D12C
:1016F000FFF76ABB70470000000001407047FEE73B
:1017000010B5040007D0002000F00AF80349086073
:10171000606000202060204610BD00001400002002
:1017200010B5012000F010FF04000BD000231A4672
:10173000194600F083FF01280CD00A4900200860F8
:10174000204610BD502080F31188BFF34F8FBFF3A8
:101750006F8FFEE7502080F31188BFF34F8FBFF3E8
:101760006F8FFEE7100000201FB500211148009187
:10177000019102910E4A0391C0E9002101614FF0ED
:1017800000728161826001620B4AC0E90A21012472
:10179000C160C46144610163FEF743FF022000940D
:1017A000CDE9014069460348FEF792FE1FBD0000E7
:1017B00000200140880000200100000F0B480A496A
:1017C0004FF4302201601521416000218160C0E9A1
:1017D00003124FF440124261017641768176C17660
:1017E00001774177FFF727B900640040D00000205F
:1017F0002DE9F04786B014216846FEF78BFD454879
:101800000024016841F010010160016801F010013D
:101810000591016841F080010160016801F08001DB
:101820000591016841F001010160016801F00101C9
:101830000591016841F002010160016801F00201B7
:101840000591016841F0080101600068DFF8C88077
:1018500000F008000590002208214046FFF7A8FA92
:10186000DFF8B8904FF47446002231464846FFF73F
:101870009FFADFF8ACA04FF440770022394650467B
:10188000FFF796FA082000900125CDE9015469463A
:1018900040460394FFF7B4F9092000902148CDE9B0
:1018A0000104DFF8848069464046FFF7A9F9062065
:1018B000CDE90004694640460294FFF7A1F900967D
:1018C000CDE90154694648460394FFF799F9E802C7
:1018D000CDE90004694648460294FFF791F9009764
:1018E000CDE90154694650460394FFF789F9002277
:1018F0004E210620FFF7ECFA0620FFF7DDFA002262
:101900004F210920FFF7E4FA0920FFF7D5FA06B0C6
:10191000BDE8F0873038024000100240000C024061
:101920000000024000001110000402400B480A4968
:101930004FF4007201604FF48271416000218160B8
:10194000C1600161C0E90512C16101624162816249
:101950000A21C162FFF774BD00300140F800002089
:10196000FEE770470907090E002806DA00F00F00AD
:1019700000F1E02080F8141D704700F1E02080F8AD
:101980000014704710B5502080F31188BFF34F8FBB
:10199000BFF36F8F00F072FF18B104494FF0805011
:1019A0000860002080F3118810BD000004ED00E005
:1019B00030B593B030216846FEF7ACFC14210CA87A
:1019C000FEF7A8FC1A480025016841F0805101602B
:1019D000006800F0805011901648016841F4804181
:1019E00001600068022400F4804011900120009002
:1019F000000401908001CDE90640082008904FF4D2
:101A0000A870CDE9090407200B906846FFF78AFB10
:101A10000CA90F2081E831004FF4A0500F90E00294
:101A2000109005210CA8FFF785FA13B030BD000017
:101A300040380240007000401048016841F47001D5
:101A400001600F48016841F0010101600C4A00216A
:101A50000832116002680B4B1A400260031D0A4AEB
:101A60001A60026822F48022026005480C3001608E
:101A700002495806803908607047000088ED00E090
:101A800000380240FFFFF6FE103000240148FFF747
:101A900076BD000050010020F0B50268234B244DB4
:101AA000244E254F254C4FF0804C984209D060457C
:101AB00007D0A84205D0B04203D0B84201D0A0421E
:101AC00004D122F0700E4A6842EA0E0298421BD0FE
:101AD000604519D0A84217D0B04215D0B84213D0F3
:101AE000A04211D0164DA8420ED0164DA8420BD0E0
:101AF000154DA84208D0154DA84205D0144DA84256
:101B000002D0144DA84203D122F44075CA682A437A
:101B100002608A68C2620A688262984201D0A0426A
:101B200001D10969016301214161F0BD000001405B
:101B30000004004000080040000C00400004014088
:101B400000400140004401400048014000180040AE
:101B5000001C004000200040FEE702E008C8121F01
:101B600008C1002AFAD170477047002001E001C186
:101B7000121F002AFBD1704786B0FFF72DF9FFF73F
:101B800017FFFFF735FEFFF7EFFDFFF7CFFEFFF77B
:101B900015FE002404A8049400F061F80A4DE860E2
:101BA00002940394002102A8FFF7AAFDA860032075
:101BB000CDE900040023802204A10A4800F024FE9D
:101BC00000F0E8FBFEE70000000000206C65637495
:101BD00075726120706F74656E63696F6D65747284
:101BE0006F000000FD1B000810B5401A029CE41AAB
:101BF0006043511A90FBF1F0184410BD00240125F8
:101C00000226DFF8448086B0C827CDE90145CDE93A
:101C1000036401A90D48FEF75BFC0C48FEF7AEFD1E
:101C200005210A48FEF758FD50B90848FEF7F6FCB2
:101C30000023FF2219460097FFF7D6FFC8F80400DB
:101C4000FA2000F005F8E0E70000002088000020FE
:101C500010B500B9012000F047FB002010BD0120A5
:101C600000F072BC2DE9F041184C0F460546E668BD
:101C70002068001D00F082FA38B9206890F82C1016
:101C800001208840216981432161681C07D137B157
:101C90002168BDE8F0410E48091D00F0A7BA206890
:101CA0003544B5424560216805D2A06BBDE8F041DE
:101CB000091D00F083BA606B091D00F07FFAA06A6D
:101CC000854200D2A562BDE8F08100002800002016
:101CD000680200202DE9F041054600F093FA2E4CF1
:101CE000A068401CA06020682C4F10B1606940B310
:101CF0002DE02560A068012829D1002606EB86008A
:101D000007EB800000F04CFA761C072EF6D3234830
:101D10008C3000F045FA2148A03000F041FA1F480D
:101D2000B43000F03DFA1D48C83000F039FA1B48C5
:101D3000DC3000F035FA19488C3060631430A06351
:101D400005E02068E96AC06A884200D82560606AB8
:101D5000401C6062E96A01202269884010432061CA
:101D600001EB810007EB8000291D00F03FFA00F035
:101D700069FA606900280CD02068E96AC06A884264
:101D800007D207494FF080500860BFF34F8FBFF371
:101D90006F8FBDE8F0810000280000208C0100203A
:101DA00004ED00E070B5114E114C17E000F026FB79
:101DB0003068B8B100F04CFE00F024FAF068C56855
:101DC000281D00F0DBF9A068401EA0606068401E7E
:101DD000606000F037FA284600F042F8606800289A
:101DE000E4D170BD00F034FEF8E70000540200209A
:101DF000280000202DE9F041856B17460446002697
:101E0000026C82B1C7B1E068FEF76BFAE168206C42
:101E1000091AE1602268914202D26168081AE06002
:101E2000022F16D017E02068A8B9606800F08AFD7C
:101E30000646002060600EE0A068FEF752FA216CB2
:101E4000A0680844A0606168884204D32068A0604C
:101E500001E005B16D1E6D1CA5633046BDE8F08143
:101E600010B50446006B00F001FA2046BDE81040B2
:101E700000F0FCB910484FF47051420706D0C01D65
:101E80000D4920F00700411AC1F570510B4A00239B
:101E90000144C2E900030839103A21F0070111603A
:101EA0004B600B600B1AC0E9001393604FF00040C9
:101EB0005360D060704700007C0200207400002056
:101EC000074C4FF08056074DFFF76CFF2068012844
:101ED000FAD92E60BFF34F8FBFF36F8FF4E7000086
:101EE0008C01002004ED00E02DE9F0479A46DDE981
:101EF000098481466FF00303206B03EB82021044D8
:101F0000089D20F00706700707D0502080F3118845
:101F1000BFF34F8FBFF36F8FFEE723180A5C83F880
:101F200034200A5C12B1401C1028F6D3002784F834
:101F30004370072D00D30625E562C4E91157201D23
:101F400000F039F904F1180000F035F92461C5F109
:101F500007006462A061E76484F850705246494605
:101F6000304600F0F5F82060B8F1000F01D0C8F855
:101F70000040BDE8F087000030B5114900E011468F
:101F80000A688242FBD34B685C18844203D14068E4
:101F900018444860084643681C18944209D1084C0C
:101FA000103C2468A24209D052681A4442600A6870
:101FB00012680260814200D0086030BD0460F9E719
:101FC000740000200648416B096829B1416BC9685B
:101FD000C9684968816270474FF0FF31FAE7000035
:101FE0002800002008484068401C4FF0500080F353
:101FF000118804D0BFF34F8FBFF36F8FFEE7BFF39D
:102000004F8FBFF36F8FFEE77C0000202DE9F0417A
:10201000044600F0F7F894F9455004F1240609E06D
:10202000606A48B1304600F0D9FC08B100F082F98E
:102030006D1E6DB2002DF3DC4FF0FF3684F8456065
:1020400000F000F900F0DEF894F9445004F11007B4
:1020500009E0206948B1384600F0C0FC08B100F042
:1020600069F96D1E6DB2002DF3DC84F84460BDE8A3
:10207000F04100F0E7B800002DE9F04105460027E7
:1020800000F0BCF9314E306808B9FFF7F3FEF06894
:1020900005424BD1C5B3083568070ED005F00700DF
:1020A000C0F108000544680707D0502080F311886C
:1020B000BFF34F8FBFF36F8FFEE72DB3706885427C
:1020C00034D82248103001460C6801E020460C4606
:1020D0006168A94202D221680029F7D131688C4297
:1020E00024D007682168016060680837411B102907
:1020F0000FD96019420708D0502080F31188BFF330
:102100004F8FBFF36F8FFEE710E041606560FFF710
:1021100033FF61687068401A7060B268904200D204
:10212000B060F06801430020C4E9000100F090FCB9
:10213000780707D0502080F31188BFF34F8FBFF38B
:102140006F8FFEE73846BDE8F08100006400002094
:1021500010B5031F4FF080741C601B1F21F001019C
:102160001960191F044B0B6014390A60091F6FF0C6
:10217000020244380A6010BDE51F0008D0E90132B0
:1021800001699A60D0E901235A604A68824201D10C
:1021900082684A60002202610868401E0860704739
:1021A00000F108014FF0FF32C0E90112C160016186
:1021B00000210160704700210161704730B50B6854
:1021C0005A1C02D000F1080202E0026904E0224633
:1021D000546825689D42FAD953684B6099608A60BB
:1021E000516008610168491C016030BD42684A6065
:1021F00093688B6093685960916008610168491C1D
:1022000001607047502080F31188BFF34F8FBFF3F8
:102210006F8F0A494868401C486001280CD1084863
:10222000006810F0FF0F07D0502080F31188BFF333
:102230004F8FBFF36F8FFEE7704700007C000020D8
:1022400004ED00E00849486828B1401E486001D10B
:1022500080F311887047502080F31188BFF34F8FAF
:10226000BFF36F8FFEE700007C00002070B50028F0
:1022700027D0144DA0F108046168E868014207D135
:10228000502080F31188BFF34F8FBFF36F8FFEE7AD
:1022900022683AB1502080F31188BFF34F8FBFF30B
:1022A0006F8FFEE78143616000F0A8F8606869689D
:1022B000084468602046FFF75FFEBDE8704000F00C
:1022C000C7BB70BD6400002006484FF47A710068F7
:1022D000B0FBF1F14FF0E020491E4161072101619F
:1022E000704700002400002010B5020014D00F48F1
:1022F000006B38B1502080F31188BFF34F8FBFF3CC
:102300006F8FFEE700F07AF800211046FFF7AAFC75
:1023100000F09EFB002807D105494FF0805008606F
:10232000BFF34F8FBFF36F8F10BD00002800002058
:1023300004ED00E001490120C86170472800002039
:1023400010B50C4650B1094909681831FFF736FF3E
:102350002046BDE810400121FFF784BC502080F3E7
:102360001188BFF34F8FBFF36F8FFEE72800002067
:1023700028B107490A6A0260C96841607047502065
:1023800080F31188BFF34F8FBFF36F8FFEE700001C
:10239000280000201CB515480024CDE90040234644
:1023A000802213A1144800F02FFA012809D0401C04
:1023B0001AD1502080F31188BFF34F8FBFF36F8F76
:1023C000FEE7502080F31188BFF34F8FBFF36F8F6C
:1023D00006484FF0FF312C38816201214161C46011
:1023E000BDE81C4000F040B81CBD000054000020B7
:1023F00049444C4500000000C11E00080248016B22
:10240000491C016370470000280000201448016B3C
:1024100011B10121C16170470021C1610169B1FAA7
:1024200081F1C1F11F0101EB81020E4951F8223007
:102430006BB101EB820101F108034A6852684A60FE
:102440009A4201D152684A60D168016070475020B9
:1024500080F31188BFF34F8FBFF36F8FFEE700004B
:10246000280000208C0100201CB532480168324A47
:10247000914207D1502080F31188BFF34F8FBFF3F3
:102480006F8FFEE700682C49491E884207D1502013
:1024900080F31188BFF34F8FBFF36F8FFEE727499B
:1024A00008780190FF20087008788DF800009DF8EA
:1024B00000009DF8002000F0F000904207D050206E
:1024C00080F31188BFF34F8FBFF36F8FFEE79DF846
:1024D00000001B4A00F0500010700720906005E0DB
:1024E0009DF800305B008DF80030401E9DF80030F4
:1024F0001B06F5D4000200F4E060906001980870BB
:102500000C482030016841F470010160016841F01D
:1025100070410160FFF7D8FE00205060FDF760FEBB
:102520000848016841F040410160FDF749FE002084
:102530001CBD000000ED00E071C20F4100E400E0AE
:102540007C00002034EF00E010B50246002101209D
:1025500000F00CF8041E07D00021416001600B461A
:102560000A46C16000F06AF8204610BD70B50E46FC
:10257000050013D0D6B105FB06F04830FFF77CFD0F
:10258000040009D004F1480120468EB10160C0E981
:102590000F56012100F00EF8204670BD502080F348
:1025A0001188BFF34F8FBFF36F8FFEE70020E4E782
:1025B0000060ECE770B50D46040025D0FFF722FE61
:1025C000D4E90F20216802FB001161600021A163A2
:1025D0002168A1600A46D4E90F01401E00FB0121D9
:1025E000E16021464FF0FF3001F8440F487004F1DC
:1025F00010008DB1FFF7D4FD04F12400FFF7D0FDEA
:10260000FFF720FE012070BD502080F31188BFF33A
:102610004F8FBFF36F8FFEE721690029F0D000F0E4
:10262000DDF90028ECD004494FF080500860BFF37A
:102630004F8FBFF36F8FE3E704ED00E02DE9FF4715
:1026400082B01D468A464FF00008040003D0BAF15C
:10265000000F08D011E0502080F31188BFF34F8F96
:10266000BFF36F8FFEE7206C38B1502080F31188E4
:10267000BFF34F8FBFF36F8FFEE7022D0AD1E06BE0
:10268000012807D0502080F31188BFF34F8FBFF38C
:102690006F8FFEE700F0E4F83F4F4FF000094FF076
:1026A000805648B9049838B1502080F31188BFF3A0
:1026B0004F8FBFF36F8FFEE7FFF7A4FDA06BE16BB9
:1026C000884207D3022D05D00498D0B1B8F1000F8D
:1026D0001AD01EE02A4651462046FFF78BFB616A5E
:1026E00019B104F1240000F079F920B13E60BFF384
:1026F0004F8FBFF36F8FFFF7A5FD012006B0BDE838
:10270000F087FFF79FFD22E06846FFF731FE4FF0AC
:102710000108FFF797FDFFF771FEFFF773FD94F9CE
:102720004400401C01D184F8449094F94500401CB9
:1027300001D184F84590FFF785FD04A9684600F0B3
:102740002DF830B12046FFF761FC00F081F9002040
:10275000D4E7FFF757FDA06BE16B884213D1FFF779
:1027600071FD04F110000499FFF7EAFD2046FFF720
:102770004DFC00F06DF900289ED13E60BFF34F8FF5
:10278000BFF36F8F98E7FFF75DFD2046FFF73EFC34
:1027900000F05EF990E7000004ED00E070B50D4632
:1027A000040019D005B3FFF72DFD164AD16828683B
:1027B000431C0FD02368126A934202D062688A4297
:1027C0001AD96268891A814216D2401A28602046B6
:1027D000FFF7CEFD002410E0502080F31188BFF3F6
:1027E0004F8FBFF36F8FFEE7502080F31188BFF348
:1027F0004F8FBFF36F8FFEE70124FFF723FD2046C5
:1028000070BD0000280000202DE9FF5F8346DDE950
:102810000E87994616468A469000FFF72DFC050064
:102820001AD05420FFF728FC040012D025630021A1
:10283000CDE90241CDE900874B4632465146584624
:10284000FFF752FB2046FFF745FA012004B0BDE830
:10285000F09F2846FFF70AFD4FF0FF30F6E7000033
:102860000548416919B1006B18B10020704701207B
:102870007047022070470000280000202DE9F04139
:102880002E4C0027206B40B1A069401CA061E0697C
:1028900000B101273846BDE8F081E668761CE660A5
:1028A00013D1606B006838B1502080F31188BFF3FA
:1028B0004F8FBFF36F8FFEE7606BA16B6163A06307
:1028C000206A401C2062FFF77DFBA06ADFF8708061
:1028D000864209D3606B006880B1606BC068C568D0
:1028E000686886420DD2A0622068C06A00EB800151
:1028F00058F821000128CAD90127C8E74FF0FF3056
:10290000F1E7281DFFF73AFCA86A18B105F1180095
:10291000FFF734FCE86A01212269814011432161FB
:1029200000EB800108EB8100291DFFF75FFCE86ADE
:102930002168C96A8842CDD30127CBE7280000204F
:102940008C01002070B504004FF0000140D0214DF3
:102950002868844207D0502080F31188BFF34F8F3E
:10296000BFF36F8FFEE7A06C38B1401EA064636CAC
:10297000E26A9A422CD040B12AE0502080F31188BC
:10298000BFF34F8FBFF36F8FFEE7201DFFF7F6FBFE
:10299000114A012150B9E06A00EB800352F823305C
:1029A00023B92B6901FA00F083432B61606CE0626C
:1029B000C0F10700A061E06A2B69814019432961D9
:1029C00000EB800002EB8000211DFFF70FFC0121CE
:1029D000084670BD280000208C0100202DE9F04140
:1029E000C068C468ACB104F118000746FFF7C6FB25
:1029F000154D286B0126A0B139461448FFF7F6FBA8
:102A0000E06A2968C96A88421CD90120EE61BDE8E4
:102A1000F081502080F31188BFF34F8FBFF36F8F89
:102A2000FEE7201DFFF7AAFBE16A2A6906FA01F01A
:102A30001043286101EB81000449B43901EB8000A7
:102A4000211DDBE70020E2E72800002040020020F3
:102A50002DE9F0472C4D00242746286B38B1FFF7AD
:102A6000D1FB286B401E2863286B40B146E0502004
:102A700080F31188BFF34F8FBFF36F8FFEE7A96814
:102A8000224E0120D1B3A6F1B40980463068E8B1E6
:102A9000F068C46804F11800FFF770FB201DFFF711
:102AA0006DFBE06A2A6908FA00F11143296100EB25
:102AB000800109EB8100211DFFF798FBE06A29687E
:102AC000C96A8842E2D3C5F81C80DFE70CB1FFF782
:102AD00079FAAC6944B14646FFF7D0FE00B1EE6129
:102AE000641EF9D10020A861E86938B108490127BE
:102AF00038070860BFF34F8FBFF36F8FFFF7A2FB5C
:102B00003846BDE8F0870000280000204002002081
:102B100004ED00E0000000000000000001020304DA
:102B20000607080900000000010203044C2B0008FE
:102B300000000020880000005A1B0008D42B000869
:102B400088000020F84100006A1B00080000000017
:102B50000000000000000000000000000000000075
:102B60000000000001000000100000000000000054
:102B70000024F4000000000000000000000000003D
:102B80000000000000000000000000000000000045
:102B90000000000000000000000000000000000035
:102BA0000000000000000000000000000000000025
:102BB0000000000000000000000000000000000015
:102BC000000000000000000000000000AAAAAAAA5D
:042BD0000000000001
:040000050800018965
:00000001FF
