:020000040800F2
:10000000884200205D0200089B1F0008571D000861
:10001000991F0008910A0008A122000800000000B2
:10002000000000000000000000000000A101000826
:10003000050B000800000000F50100084D20000835
:1000400077020008770200087702000877020008AC
:100050007702000877020008070B00087702000803
:10006000770200080D0B00087702000877020008ED
:10007000770200087702000877020008770200087C
:10008000770200087702000877020008770200086C
:10009000950A000877020008770200087702000836
:1000A000770200085521000877020008770200084F
:1000B000770200087702000877020008770200083C
:1000C000770200087702000877020008770200082C
:1000D000770200087702000877020008770200081C
:1000E000770200087702000877020008770200080C
:1000F00077020008770200087702000877020008FC
:1001000077020008770200087702000877020008EB
:1001100077020008770200087702000877020008DB
:1001200077020008770200087702000877020008CB
:1001300077020008770200087702000877020008BB
:1001400077020008770200087702000877020008AB
:10015000770200087702000877020008770200089B
:10016000770200087702000877020008770200088B
:1001700077020008770200087702000800000000FC
:100180007702000877020008DFF810D000F078FB53
:1001900000480047B5320008AFF3008088420020D5
:1001A0002B4B19680868B0E8F04F80F30988BFF35B
:1001B0006F8F4FF0000080F311887047000000003F
:1001C00006480068006880F3088862B661B6BFF32D
:1001D0004F8FBFF36F8F00DF00BF00BF08ED00E05F
:1001E000DFF80C00016841F470010160704700BF46
:1001F00088ED00E0EFF30980BFF36F8F144B1A68AE
:100200001EF0100F08BF20ED108A20E9F04F10609B
:1002100008B44FF0500080F31188BFF34F8FBFF345
:100220006F8F03F0B7FD4FF0000080F3118808BC1A
:1002300019680868B0E8F04F1EF0100F08BFB0EC66
:10024000108A80F30988BFF36F8F704700BF00BF2B
:100250002C000020EFF3058070470000064880471F
:1002600006480047FEE7FEE7FEE7FEE7FEE7FEE79B
:10027000FEE7FEE7FEE7FEE701210008890100082E
:100280002DE9F05F0546002092469B4688460646CB
:10029000814640241BE0284641464746224600F05E
:1002A000F4F853465A46C01A914110D311461846E5
:1002B000224600F0DBF82D1A67EB01084F46224674
:1002C0000120002100F0D2F817EB00094E41201E5A
:1002D000A4F10104DFDC484631462A464346BDE826
:1002E000F09F40EA01039B0703D009E008C9121FF1
:1002F00008C0042AFAD203E011F8013B00F8013BE0
:10030000521EF9D27047D2B201E000F8012B491E0B
:10031000FBD270470022F6E710B513460A460446A2
:100320001946FFF7F0FF204610BD2DE9FE4F81EA88
:10033000030404F0004421F0004100944FF0000B4E
:1003400023F0004350EA01045ED052EA03045BD07C
:10035000C3F30A54C1F30A552C44A4F2F3340194B4
:10036000A0FB0254C1F3130141F48011C3F3130342
:1003700043F4801301FB024400FB034E840A970AF6
:1003800044EA815447EA8357A4FB076802958D0A23
:1003900005FB07854FEA932C04FB0C542705029DAF
:1003A0004FEA065847EA1637B5EB08056EEB070C1F
:1003B000870E920E47EA811742EA8312A7FB0201D9
:1003C000B6EB0B0164EB00042B0D43EA0C335E1813
:1003D00044EB1C50DA465146E7FB0201C5F3130417
:1003E0004FEA0B3343EA14534FEA0432019C43EAC9
:1003F0000603A4F10C040294009CCDE900B400F0C3
:100400009AF803B0BDE8F08F00200146F9E700F04C
:10041000004230F000400AD0C10D01F56071C0F318
:10042000160042EA0151C2084007114370470020FC
:100430000146704701F0004330B421F0004150EA1A
:10044000010206D00A0DA2F56072C1F31301002A61
:1004500002DC30BC00207047440F44EAC104C100F4
:10046000E01830BC00EBC25000F01FB8202A04DBBB
:10047000203A00FA02F1002070479140C2F12003B7
:1004800020FA03F3194390407047202A04DB203AF6
:1004900021FA02F00021704721FA02F3D040C2F1A4
:1004A000200291400843194670470029A8BF7047B1
:1004B000401C490008BF20F00100704710B4B0FA9A
:1004C00080FC00FA0CF050EA010404BF10BC704735
:1004D00049B1CCF1200421FA04F411FA0CF118BF4F
:1004E000012121430843A3EB0C01CB1D4FEA00611E
:1004F0004FEA102042BF002010BC704700EBC350F1
:1005000010440029A4BF10BC7047401C490008BF1C
:1005100020F0010010BC704710B5141E73F10004E8
:1005200008DA401C41F1000192185B411A4301D1E5
:1005300020F0010010BD2DE9F04D92469B4611B10F
:10054000B1FA81F202E0B0FA80F220329046FFF771
:100550008DFF04460F4640EA0A0041EA0B0153466C
:100560005A46084313D0114653EA010019D0C8F186
:1005700040025046FFF789FF05460E465046594651
:100580004246FFF773FF084305D0012004E02046F0
:100590003946BDE8F08D0020054346EAE0762C435D
:1005A00037430A986305E40AA0EB08000022FD0A1D
:1005B00044EA47540A3002D500200146E9E7010524
:1005C00010196941DDE9084500196941BDE8F04DA0
:1005D000A2E72DE9FE4F804681EA0300C00F0C46DA
:1005E000009021F0004123F00045B8EB0200A94142
:1005F00005D24046214690461C460B46024623F053
:100600000040104347D0270DC7F30A00C3F30A5137
:100610000290401A019040286BDAC3F3130040F4B3
:10062000801B0098924620B10023D2EB030A63EBB3
:100630000B0B01985946C0F140025046FFF716FFD8
:1006400006460D4650465946019A00F02BF910EB2C
:1006500008006141002487EA115284EAE7731A43D3
:1006600040D0009A62B3019A012A4FEA075215DC82
:10067000001B61EB02014FF0004202EA0752CDE994
:100680000042001C41F5801132462B46FFF753FF14
:1006900003B0BDE8F08F40462146F9E7001B61EB4F
:1006A0000201001C41F5801300185B412018A2F5DF
:1006B000001747EB030140EAD570B6196D4111E010
:1006C0006D084FEA360645EAC0754FEA0752001B2F
:1006D00061EB0201001C41F5801149084FEA30002E
:1006E0000019514132462B4603B0BDE8F04FFFF7E9
:1006F00013BF0098012240000023D0EB020263EBFD
:10070000E073009821464FEAE074B8EB000061EB1B
:100710000401E9E783F000435BE781F0004158E71B
:100720002DE9F04D81EA030404F0004B21F000456F
:1007300014464FF0000A23F0004150EA050220D091
:1007400054EA01021DD0C5F30A570246C5F313034C
:10075000C1F31300C1F30A5640F4801543F480132B
:10076000A7EB0608101BD64608F2FD3873EB050010
:1007700002D308F1010801E092185B41B8F1000FC3
:1007800003DA00200146BDE8F08D00204FF480110F
:10079000064684460EE0171B73EB050705D3121BB4
:1007A00063EB050306434CEA010C49084FEA3000AD
:1007B00092185B4150EA0107EDD152EA030012D0D2
:1007C00082EA040083EA0501084305D0101BAB410F
:1007D00006D20122002306E000224FF0004302E08F
:1007E0006FF0010253101AEB06004CEB085110EBAE
:1007F0000A0041EB0B01BDE8F04DFFF78DBE70B56F
:1008000021F0004303430CD0C1F30A550024D5EB7B
:10081000040564EB0403D617AD1AB34102DB0020D4
:10082000014670BD201841EB025170BD0EB5C10FDD
:1008300080EAE0700844CA07002140F233438DE8A3
:100840000E000A460B46FFF776FE03B000BD00001F
:1008500030B5041E71F1000404DB4FF00044404247
:1008600064EB0101141E73F1000405DB1C464FF01C
:100870000043524263EB0403994208BF904230BDEB
:10088000064C074D06E0E06840F0010394E80700DD
:1008900098471034AC42F6D3FFF77AFCD0460008F4
:1008A000F0460008202A06DBCB17203A41FA02F076
:1008B00043EAE07306E041FA02F3D040C2F12002BD
:1008C00091400843194670472DE9F04D00231A4620
:1008D0001B1A8A4103DB00200146BDE8F08DC1F3FD
:1008E0000A52C1F3130141F480154FF0000BD107F8
:1008F00002D100186D41521E0027044640F2FF113C
:10090000384601EB620A3E468046024600204FF41C
:100910008011FFF7BAFDC2197141BB1846EB010007
:10092000B4EB030C75EB000C04D3E41A65EB000583
:1009300017460E46241908F101006D4180463428FF
:10094000E3DDF91946EB0600091BA84103D24FF07D
:10095000FF32134601E0002213461BEB070046EB73
:100960000A51BDE8F04DFFF7D7BD0000454910B56D
:100970004A6822F440324A604A6843681A434A602F
:1009800001684A6822F480724A6001684A68036913
:1009900042EA03224A6001684A6822F040724A60D3
:1009A00001684A6883681A434A6001688A6822F4C9
:1009B00000628A6001688A68C3681A438A60816A33
:1009C0006FF07062D14201688A6822F070628A60BA
:1009D00001688A680CD0836A1A438A6001688A6851
:1009E00022F040528A6001688A68C36A1A4301E0B3
:1009F00022F040528A6001688A6822F002028A600E
:100A000001688A68836942EA43028A60016A0029B0
:100A100001684A680FD042F400624A6001684A687F
:100A200022F460424A6001684A68174C436A04EB4A
:100A300043331A4301E022F400624A600168CA6A43
:100A400022F47002CA620168CA6A838B0F4C04EBFD
:100A500003531A43CA6201688A6822F400728A60EA
:100A600001688A68036B42EA43228A6001688A68E7
:100A700022F480628A6001688A68406942EA8020C4
:100A8000886010BD0023014000E0FFFF0000F0FF80
:100A9000FEE70000014800F0F2B90000D800002095
:100AA00010B5002001F058F90149086010BD0000A0
:100AB0000C00002010B5124C2DED028BB0EE408AD8
:100AC000206890B100235A1E194603F037FA012816
:100AD00013D184ED018A20680023BDEC028B1A46F5
:100AE000BDE81040194603F023BB502080F3118865
:100AF000BFF34F8FBFF36F8FFEE7BDEC028B10BDCE
:100B00000C0000207047012000F090BB082000F08E
:100B10008DBB000078B50024009490F83C20012A99
:100B200019D0012280F83C200A6807230568092AA9
:100B300013D9EE680A3A02EB420293409E43EE60FC
:100B40000B788A680A3B03EB43039A400368DD682D
:100B50002A43DA6010E0022078BD2E6902EB4202DF
:100B600093409E432E610B788A6803EB43039A40BF
:100B700003681D692A431A614A681F23072A13D292
:100B800005686E6B521E02EB820293409E436E63B9
:100B90000B790A885B1E92B203EB83039A400368C9
:100BA0005D6B2A435A6327E005680D2A12D22E6B2B
:100BB000D21F02EB820293409E432E630B790A8878
:100BC000DB1F92B203EB83039A4003681D6B2A4339
:100BD0001A6311E0EE6A0D3A02EB820293409E43E3
:100BE000EE620B790A880D3B92B203EB83039A40C5
:100BF0000368DD6A2A43DA62164B0568144A9D428F
:100C000006D10D68122D03D1556845F48005556055
:100C100005689D4218D10B68102B01D0112B13D100
:100C2000536843F400035360096810290CD10A4942
:100C30000A4A0968B1FBF2F101EB8101490000E0C9
:100C4000491E00910029FBD180F83C40002078BD6E
:100C500000230140002001402800002040420F00F6
:100C60000068C06C704770B504004FF0000503D0F9
:100C7000206C002610B107E0012070BD666484F886
:100C80003C60204600F01AF8206CC00610D4206C9E
:100C900020F4885040F0020020642046FFF766FEF2
:100CA0006664206C20F0020040F00100206400E047
:100CB000012584F83C60284670BD000010B586B060
:100CC000044614216846FFF725FB11492068884235
:100CD0001CD110480021026842F480720260006852
:100CE00000F4807005900B481438026842F001024D
:100CF0000260006800F001000590072000900320CA
:100D0000CDE901016946044800F09CFA06B010BD27
:100D10000020014044380240000002402DE9F0412B
:100D2000044600680D4681684FF0000749050BD561
:100D30008068C00508D5206C40F02000206484F84D
:100D40003C700120BDE8F08100F05EFB06460FE03C
:100D5000681C0DD025B100F057FB801BA84207D9B5
:100D6000206C40F00400206484F83C700320E9E724
:100D7000206800688007EBD521686FF012000860DA
:100D8000206C40F4007020642068816811F0405F9E
:100D900013D1A16989B9C16A11F4700F02D08068BA
:100DA00040050AD4206C20F480702064206CC004BC
:100DB00003D4206C40F0010020640020C2E7000052
:100DC00018B50021009190F83C20012A07D001229B
:100DD00080F83C2002689368DB0702D011E0022013
:100DE00018BD936843F001039360204A204B1268BA
:100DF000B2FBF3F202EB420200E0521E0092002A24
:100E0000FBD102689368DB072DD0036C40F20164CC
:100E1000A34343F48073036453685B0505D5036CF7
:100E200023F4005343F480530364036CDB0404D5C0
:100E3000436C23F00603436400E0416480F83C10F7
:100E40000C496FF02203136049680068C90602D09C
:100E50000949884207D1816811F0405F03D1816858
:100E600041F080418160002018BD00002800002072
:100E700040420F00002301400020014070472DE94F
:100E8000F05F0546006800244669D0F80490876842
:100E9000D0F80CB0D0F810A0D0F81880F10748D0E6
:100EA000F90714D001218160B80703D5284600F066
:100EB000B5F90CE0780702D54FF4006407E0380775
:100EC00002D54FF4805402E0284600F0A6F9F80558
:100ED00016D529684FF480708860B80503D5284678
:100EE00000F09EF90CE0780502D544F4005407E0C8
:100EF000380502D544F4804402E0284600F08FF91A
:100F0000F80316D529684FF480308860B80303D5FC
:100F1000284600F087F90CE0780302D544F4004439
:100F200007E0380302D544F4803402E0284600F09C
:100F300078F9300707D55FEACB6004D5296810201F
:100F400044F40074C86070074FF0080707D55FEAE3
:100F50000B7004D52868C760284600F059F9B0071F
:100F600006D52868C068800702D0284600F051F9ED
:100F7000700607D55FEACA6004D52968102044F4DA
:100F800080640861B00607D55FEA0A7004D5286856
:100F90000761284600F03EF9F00606D5286800698A
:100FA000800702D0284600F036F9B00308D55FEA82
:100FB000C96005D5296810204860284600F02CF942
:100FC000F00307D55FEA097004D528684760284612
:100FD00000F029F9300446D55FEA497040D5F005A4
:100FE00004D55FEAC87001D044F00104B00504D50F
:100FF0005FEA887001D544F00204700504D55FEA09
:10100000487001D544F00404300529D518F0700F5C
:1010100026D008F07000402815D006DC102809D032
:1010200020280AD0302816D10AE050280ED0602897
:1010300011D10EE044F008040DE044F010040AE081
:1010400044F0200407E044F0400404E044F080044D
:1010500001E044F480742868816921F070018161A5
:10106000296804204860002C05D0686A2043686223
:101070002846FFF703FFBDE8F09F70B5040003D0DA
:1010800094F8200010B104E0012070BD204600F06B
:1010900081F82068016821F00201016000F0B4F9D4
:1010A0000546052604E000F0AFF9401B0A2811D8D8
:1010B000206840688007F6D42068016841F001018B
:1010C000016000F0A1F905460BE000F09DF9401B1E
:1010D0000A2806D9606A40F40030606284F8206013
:1010E000D2E720684068C007EFD0207E0128206842
:1010F00001683DD021F080010160607E01282068F8
:10110000016838D021F040010160A07E01282068EC
:10111000016833D021F020010160E07E01282068C1
:1011200001682ED041F010010160207F0128206865
:10113000016829D021F008010160607F0128206842
:10114000016824D021F004010160D4E902010843C0
:10115000D4E90412114308436168491E0843216819
:10116000C86100206062012084F82000002070BD6A
:1011700041F08001C0E741F04001C5E741F02001A6
:10118000CAE721F01001CFE741F00801D4E741F0B0
:101190000401D9E710B586B0044614216846FFF76C
:1011A000B9F818492068884229D1174800210268F7
:1011B00042F000720260006800F000700590124872
:1011C0001038026842F002020260006800F002007B
:1011D00005904FF4407000900220CDE901010320FA
:1011E0000390092004906946084800F02BF800227B
:1011F0000521142000F092F9142000F083F906B0C4
:1012000010BD00000064004040380240000402406D
:101210007047704770477047704770477047704716
:10122000704770477047704770470000044910B519
:101230000A68024202D00860FFF7F6FF10BD000006
:10124000143C01402DE9F84FDFF87CB100224FF04B
:1012500001084FF0030A4FF00F090BF1040E00BF15
:101260000B6808FA02F42340A3426ED14D68022DA8
:1012700001D0122D0ED1D50800EB850CDCF82050E2
:101280005607F70E09FA07F6B5430E69BE402E431E
:10129000CCF82060066855000F790AFA05FC07F0C3
:1012A000030726EA0C06AF40374307604E68012E5D
:1012B00005D0022E03D0112E01D0122E0ED1866839
:1012C000CF6826EA0C06AF40374387604668A643DE
:1012D0000C79C4F30014944034434460C6688C68AD
:1012E00026EA0C06AC403443C4604C68E40065D583
:1012F000364C256845F480452560246822F00305B6
:1013000004F480440094324C2E19D6F8084895070E
:101310002F0F09FA07F5AC432E4DA84201D1002545
:1013200024E02D4DA84201D101251FE02B4DA842FC
:1013300001D102251AE02A4DA84201D1032515E06A
:10134000284DA84202D1042510E037E0264DA842DE
:1013500001D105250AE0254DA84201D1062505E069
:10136000234DA84201D1072500E00825BD402543B3
:10137000C6F80858DBF800405D464E689C43F6030B
:1013800000D51C432C60DEF8004075464E689C4337
:10139000B60300D51C432C600B4D08352C684E68F5
:1013A0009C43F60200D51C432C60074D0C352C687D
:1013B0004E689C43B60200D51C432C60521C102A78
:1013C000FFF44EAFBDE8F88F003C014044380240C6
:1013D00000300140000002400004024000080240CA
:1013E000000C0240001002400014024000180240AD
:1013F000001C02400069084000D0012070470AB17B
:10140000816170470904FBE701488068704700006C
:101410001C000020024881680278114481607047F6
:101420001C0000200B4810B5016841F400710160F8
:10143000016841F480610160016841F480710160DC
:10144000032000F08BF8002000F006F800F03EF8D2
:10145000002010BD003C024010B5014688B00022BB
:10146000192000F05BF8192000F04CF81348002414
:10147000016841F001010160006805A900F0010068
:101480000690684600F014F900F038F90C49400065
:10149000B0FBF1F10C480B4A491E026040F2E73202
:1014A000C0E90324C0E9011400F06CFB10B1012075
:1014B00008B010BD044800F081FBF9E74438024051
:1014C00040420F0000000140580100200C4882B04B
:1014D000016841F480410160006800F480400090A0
:1014E0000748001F016841F0805101600068002238
:1014F00000F0805000900F21901E02B000F00EB856
:101500004438024000F01F02012191404009800050
:1015100000F1E020C0F8001170470000F0B40E4B5D
:101520001B680C46C3F30223C3F10705042D00D941
:101530000425191D072901D2002300E0DB1E012626
:1015400006FA05F1491E214099409E40761E16403C
:101550003143F0BC00F022BD0CED00E0064900F084
:10156000070208684FF6FF03184040EA0220034ACA
:1015700010430860704700000CED00E00000FA0521
:101580002DE9F0470E46050065D0DFF81481D8F844
:101590000000F7B200F00F00B04207D288F80070E8
:1015A000D8F8000000F00F00B04254D128683D4C3C
:1015B000810712D5400703D5206840F4E050206031
:1015C0002878000703D5206840F460402060206838
:1015D000A96820F0F000084320602878C0072DD0CB
:1015E000304968680839012812D0022813D003282E
:1015F00011D00968890700292DDA216821F003013B
:1016000001432160FFF700FF814641F2883A0EE076
:1016100009688903EFE709688901ECE7FFF7F4FE41
:10162000A0EB0901514502D90320BDE8F0872068ED
:10163000696800F00C00B0EB810FEFD1D8F8001012
:10164000404601F00F01B14207D90770006800F071
:101650000F00B04201D00120E7E72878400705D508
:101660002068E96820F4E0500843206028780007EB
:1016700006D52068296920F4604040EAC100206056
:1016800000F04CF82168084AC1F30311515CC840CE
:10169000064908600020FFF7DFFE0020C5E70000D4
:1016A000003C024008380240244600082800002080
:1016B0000F2202600C4A136803F0030343601368AF
:1016C00003F0F0038360136803F4E053C36012680F
:1016D0004FF4E05303EAD20202610448006800F0CC
:1016E0000F0008607047000008380240003C0240CC
:1016F00001480068704700002800002004480549A0
:1017000000680968044AC1F34231515CC84070471F
:10171000280000200838024034460008154810B55B
:10172000006810F00C02144813D04110042A0FD0A6
:10173000082A0ED10F4C241F2268236802F03F02B2
:101740005B0207D52068C0F38810A0FB010106E00A
:10175000084610BD2168C1F38811A1FB00010023D8
:10176000FEF78EFD2168C1F30141491C4900B0FB21
:10177000F1F010BD083802400024F4002DE9F84FC4
:10178000050076D02878DFF8F8B2BE4CC00749D003
:10179000DBF800105846C1F38101012908D0006828
:1017A000C0F3810002280AD1201D0068400206D53E
:1017B0002068800336D568680028E2D032E0686887
:1017C000B0F5803F10D0B0F5A02F206810D020F4E5
:1017D00080302060206820F4802020606868A0B1FC
:1017E000FFF712FE06460CE0206840F48030F4E774
:1017F00040F480202060F7E7FFF706FE801B642896
:1018000073D820688003F7D50CE0FFF7FDFD06468E
:1018100005E000BFFFF7F8FD801B6428F0D82068C2
:101820008003F7D42878DFF8608280074FF0000942
:101830003ED5DBF80010584611F00C0F09D00068B7
:10184000C0F3810002280BD18D48001F00684002C0
:1018500006D42068800715D5E868012809D111E071
:10186000E868B8B10120C8F80000FFF7CDFD0646D2
:1018700005E002E1FFF7C8FD801B0228C0D8206800
:101880008007F7D52068296920F0F80040EAC100F8
:1018900020600DE0C8F80090FFF7B6FD064604E0B2
:1018A000FFF7B2FD801B02281FD820688007F7D4FD
:1018B0002878000722D5724E744869696C3671B178
:1018C00001210160FFF7A0FD074604E0FFF79CFD42
:1018D000C01B022809D830688007F7D50EE0C0F891
:1018E0000090FFF791FD074605E083E0FFF78CFDD0
:1018F000C01B02287ED830688007F7D428784007BC
:1019000068D5DFF87CA100270AF1380ADAF8000070
:10191000C0000BD4DAF8001041F08051CAF8001072
:10192000DAF80000012700F080500090584E30682F
:10193000C00510D4306840F480703060FFF764FD5B
:10194000009005E0FFF760FD0099401A022851D889
:101950003068C005F6D54A4EA868683601280FD011
:101960000528306810D020F001003060306820F089
:1019700004003060A868B8B1FFF746FD00900FE0A2
:10198000306840F00100F4E740F004003060F7E711
:10199000FFF73AFD0099411A41F28830814264D83C
:1019A00030688007F4D50EE0FFF72EFD009007E0C9
:1019B000FFF72AFD0099411A41F28830814254D83C
:1019C00030688007F4D42FB1DAF8001021F080518C
:1019D000CAF80010A869C0B3DBF80010C1F3810198
:1019E00002294AD00228484607D0C8F86000FFF70D
:1019F0000BFD00E039E005463AE04746C8F86000D4
:101A0000FFF702FD064604E0FFF7FEFC801B0228FC
:101A10002BD820688001F7D4D5E907010843A96ACB
:101A20001C4A490802EB01416A6A41EA82110843F3
:101A300095F82C1040EA01611148001F0160012057
:101A40003866FFF7E1FC054605E014E0FFF7DCFC33
:101A5000401B022809D820688001F7D50BE000BFA1
:101A6000FFF7D2FC401B022802D90320BDE8F88F03
:101A700020688001F4D40020F8E70120F6E7000098
:101A8000083802400038024000004742800E4742BA
:101A9000007000400000FFFF70B5040005D0002575
:101AA000A56294F8510010B106E0012070BD84F8E1
:101AB0005050204600F030F8022084F85100206891
:101AC000016821F040010160D4E901010843D4E933
:101AD00003121143084361690843218B01F400712B
:101AE0000843E1690843216A0843A16A0843216861
:101AF0000860A069042101EA1040616A0843216876
:101B000048602068C16921F40061C16165650120F8
:101B100084F85100002070BD10B586B00446142131
:101B20006846FEF7F7FB13492068884220D1124827
:101B30000021026842F480520260006800F4805084
:101B400005900D481438026842F0010202600068F6
:101B500000F001000590E02000900220CDE9010195
:101B6000032003900520049069460448FFF76AFBB0
:101B700006B010BD00300140443802400000024071
:101B80007047704710B5040003D094F8390010B1C5
:101B900007E0012010BD002084F83800204600F046
:101BA0000CF8022084F83900211D206800F0D8FAD2
:101BB000012084F83900002010BD70470168CA6810
:101BC00042F00102CA600068016841F00101016051
:101BD00000207047704770B50446006801694FF0F7
:101BE0000005C943890715D4C168C943890711D4C1
:101BF000E91E016101202076206880698007204667
:101C000002D0FFF7E7FF04E000F098F8204600F06C
:101C100096F8257620680169C943490717D4C16839
:101C2000C943490713D46FF00401016102202076F3
:101C30002068806910F4407F204602D0FFF7CAFF79
:101C400004E000F07BF8204600F079F82576206863
:101C50000169C943090716D4C168C943090712D4E9
:101C60006FF008010161042020762068C0698007B8
:101C7000204602D0FFF7AEFF04E000F05FF82046F8
:101C800000F05DF8257620680169C943C90617D4BC
:101C9000C168C943C90613D46FF01001016108205F
:101CA00020762068C06910F4407F204602D0FFF7FC
:101CB00091FF04E000F042F8204600F040F825765D
:101CC00020680169C943C90708D1C168C943C90768
:101CD00004D1891E0161204600F032F820680169B4
:101CE000C943090609D4C168C943090605D46FF080
:101CF000800101612046FFF743FF20680169C94365
:101D0000490609D4C168C943490605D46FF04001AA
:101D10000161204600F01EF820680169C943890668
:101D20000BD4C168C943890607D46FF02001016153
:101D30002046BDE87040FFF724BF70BD7047704774
:101D400000680349884201D1FFF764BB7047000077
:101D5000000001407047FEE710B5012002F0B8F81E
:101D600004000BD000231A46194602F0E1F90128BD
:101D70000CD00A4900200860204610BD502080F396
:101D80001188BFF34F8FBFF36F8FFEE7502080F3B2
:101D90001188BFF34F8FBFF36F8FFEE7080000205D
:101DA0001FB5002111480091019102910E4A039143
:101DB000C0E9002101614FF000728161826001621F
:101DC0000B4AC0E90A210124C160C4614461016376
:101DD000FEF749FF02200094CDE90140694603481F
:101DE000FEF798FE1FBD000000200140900000207B
:101DF0000100000F0B480A494FF430220160152101
:101E0000416000218160C0E903124FF44012426139
:101E1000017641768176C17601774177FFF72DB95A
:101E200000640040D80000202DE9F04786B014215E
:101E30006846FEF76FFA45480024016841F010013A
:101E40000160016801F010010591016841F0800115
:101E50000160016801F080010591016841F0010114
:101E60000160016801F001010591016841F0020182
:101E70000160016801F002010591016841F008016B
:101E800001600068DFF8C88000F0080005900022BB
:101E900008214046FFF7B3FADFF8B8904FF47446D4
:101EA000002231464846FFF7AAFADFF8ACA04FF40B
:101EB0004077002239465046FFF7A1FA08200090EB
:101EC0000125CDE90154694640460394FFF7BAF96C
:101ED000092000902148CDE90104DFF8848069469B
:101EE0004046FFF7AFF90620CDE9000469464046B9
:101EF0000294FFF7A7F90096CDE9015469464846D8
:101F00000394FFF79FF9E802CDE9000469464846CB
:101F10000294FFF797F90097CDE9015469465046BE
:101F20000394FFF78FF900224E210620FFF7F6FAFF
:101F30000620FFF7E7FA00224F210920FFF7EEFA0B
:101F40000920FFF7DFFA06B0BDE8F087303802401D
:101F500000100240000C024000000240000011107E
:101F6000000402400B480A494FF4007201604FF42C
:101F70008271416000218160C1600161C0E9051288
:101F8000C1610162416281620A21C162FFF784BDC1
:101F90000030014000010020FEE770470907090EEC
:101FA000002806DA00F00F0000F1E02080F8141D90
:101FB000704700F1E02080F8001470470148406845
:101FC000704700001400002010B5012001F080FFD0
:101FD000040009D000231A46194602F0A9F8012886
:101FE0000AD00948046010BD502080F31188BFF367
:101FF0004F8FBFF36F8FFEE7502080F31188BFF340
:102000004F8FBFF36F8FFEE71400002070B50E4CAA
:102010000546206878B100235A1E194601F08EFF4C
:10202000012810D165602068BDE8704000231A4681
:10203000194602F07DB8502080F31188BFF34F8F0E
:10204000BFF36F8FFEE770BD1400002010B5502065
:1020500080F31188BFF34F8FBFF36F8F02F096F9B3
:1020600018B104494FF080500860002080F31188B7
:1020700010BD000004ED00E030B593B0302168469B
:10208000FEF748F914210CA8FEF744F91A48002578
:10209000016841F080510160006800F080501190AB
:1020A0001648016841F4804101600068022400F490
:1020B0008040119001200090000401908001CDE942
:1020C0000640082008904FF4A870CDE909040720C5
:1020D0000B906846FFF752FB0CA90F2081E83100F6
:1020E0004FF4A0500F90E002109005210CA8FFF7CC
:1020F00047FA13B030BD0000403802400070004085
:102100001048016841F4700101600F48016841F016
:10211000010101600C4A00210832116002680B4B7A
:102120001A400260031D0A4A1A60026822F48022E3
:10213000026005480C300160024958068039086089
:102140007047000088ED00E000380240FFFFF6FE17
:10215000103000240148FFF73EBD00005801002068
:10216000F0B50268234B244D244E254F254C4FF0EB
:10217000804C984209D0604507D0A84205D0B042B3
:1021800003D0B84201D0A04204D122F0700E4A68B8
:1021900042EA0E0298421BD0604519D0A84217D0DF
:1021A000B04215D0B84213D0A04211D0164DA8426B
:1021B0000ED0164DA8420BD0154DA84208D0154D93
:1021C000A84205D0144DA84202D0144DA84203D114
:1021D00022F44075CA682A4302608A68C2620A68AB
:1021E0008262984201D0A04201D1096901630121B4
:1021F0004161F0BD000001400004004000080040C3
:10220000000C004000040140004001400044014037
:102210000048014000180040001C00400020004021
:102220002DE9FF4100208DF808000122194D970289
:10223000009039462846FFF7E2F8174C0A20019033
:102240006668FFF755FA1549B0FBF1F0019948436C
:10225000019060680199801B8842FAD300223946B8
:102260002C462846FFF7CBF80125EE020AE000983D
:102270008DF80850401C009031462046FFF7BAF810
:102280000128F4D09DF808000028F5D0009804B08B
:10229000BDE8F081000C0240001000E040420F0059
:1022A000FEE703B401984100009850EAC12018BF2E
:1022B00004204A0D18BF40F0010040F2FF72B2EB5B
:1022C000515F08BF40F00200012808BF052002B09E
:1022D00070470000000000002DE9F04D2DED040BCB
:1022E0002DED0E8B96B0DDE92550279CDDF890A0F2
:1022F00025F0004624F00048BAF1000F14BF012178
:10230000002101EB4502FC4953184A1093422AD39D
:10231000002814BF0123002303EB44030B44F749B7
:102320008B4220D358EA00019FEDF59B76D0DFF871
:10233000D8B35D4503D1BAF1000F05D188E0BAF1F9
:10234000000F08BF002100D0012101EB450111F56C
:10235000001F08D8002814BF0121002101EB44010F
:1023600011F5001F0BD99DED261B9DED240B16B01A
:10237000BDEC0E8B04B0BDE8F04D00F069BE002747
:10238000002DBCBFE149884521DAE1498845A8BF55
:1023900002271CDAC3451ADCDE4901EB2851142957
:1023A00008DDC1F1340220FA02F101FA02F28242A0
:1023B0000DD108E058B9C1F1140228FA02F101FA6E
:1023C00002F2424503D101F00101C1F1020756EAD0
:1023D0000A0124D1002C22DA002D18BF022F01D0CF
:1023E000012F0AD0022000F07FFE16B0BDEC0E8B4C
:1023F00004B0BDE8F04D00F013BE022000F074FE02
:1024000000F00EFE51EC100B81F0004141EC100B7E
:1024100016B0BDEC0E8B04B0BDE8F08D18E09FED5A
:10242000BEAB9FEDBF8B002871D1B848804522D14B
:1024300005F1804010F5801008BFBAF1000F07D0F9
:10244000B3450ADC002CA8BF9DED260BE0DA0DE0B9
:10245000B0EE490AF0EE690ADAE7002C06DA9DEDE3
:10246000260B51EC100B81F000416FE0AE48784430
:1024700090ED000BCCE7D8454DD1002C48DA2EB1B9
:1024800086423AD1BAF1000F42D126E0BAF1000FEC
:1024900013D0022000F028FE00F0F6FD8DED020BB7
:1024A0009DED240B8DED000B10EE900A039961F366
:1024B0001E0003909DED020BAAE78DED02AB9DED92
:1024C000240B1AEE901A10EE900A8DED000B61F3BA
:1024D0001E0003909DED020B9AE78DED028B9DEDA2
:1024E000240B18EE901A10EE900A8DED000B61F39C
:1024F0001E0003909DED020B8AE709DA9DED240B87
:1025000051EC190B53EC102BFEF70AF91EE020E0FA
:102510009DED240B7CE786421BDAB4F1804F0DD091
:10252000A4F10050B0F1FF5013D1002D11DB9DED4F
:10253000240B51EC100B01F0FBF907E09DED240B8F
:1025400053EC102B51EC100B00F0C2BC41EC100B03
:102550005EE79DED240B51EC100B00F05DFEBAF12F
:10256000000FCDE90E0142D19FED710B46B3A6F1EC
:10257000E040B0F17F600CD05E4538D1002D00DA2C
:10258000A7B3022F0CBF01204FF0FF30FEF74EF92A
:10259000DCE7002D01DD002C0DDA002D01DD002C23
:1025A0001FDB002D16DA002C14DB012F08BF9FED76
:1025B000620B3FF42DAFB0EE4A0AF0EE6A0A27E74D
:1025C000022F18BF002D0CD0012F0AD1002DFFF6CD
:1025D0001FAF06E0002DB8BF002C08DA012F3FF432
:1025E00017AFB0EE480AF0EE680A11E71BE00120D1
:1025F00000EBE57050EA070115D0791EB0EE498A6C
:10260000F0EE698A084308BF9FED4D8B4E480025C8
:10261000804570DD4D494E48884514DDB0420DDBE4
:10262000002C19DB2FE0012000F05EFD16B0BDECA0
:102630000E8B04B0BDE8F04D00F016BDB34502DCD2
:10264000002C09DC1FE0864202DA002C1BDA03E0D2
:102650005E452BDD002C16DD022000F045FD00F06C
:1026600013FD8DED020B53EC1A2B51EC180BFDF7FB
:102670005CFECDE900010399019861F31E0003900F
:102680009DED020BC4E6022000F02EFD00F00CFDD3
:1026900010EE901A18EE900A8DED020B8DED008B66
:1026A00061F31E0003909DED020BB1E69DED0E0B54
:1026B00053EC192B51EC100BFEF72CF89FED260B69
:1026C000CDE9080153EC102B9DED080B51EC100BDC
:1026D000FDF72BFE9FED221B53EC112BFEF71DF88F
:1026E0009DED081B53EC112BFDF71FFE9FED1E1BEC
:1026F00053EC112B3CE08CE0FFFF1F00FFFF0F00AD
:10270000000000000000F03F0000F03F0000F07FFC
:102710000000404301FCFFFF000000000000F07FCC
:102720000000000000000000562200000000000031
:102730000000000000000080000000000000F0FF2A
:10274000000000000000F0BF0000E0410000F04386
:10275000FFFFEF3F00000000000000000000D03F3E
:10276000555555555555D53F000000000000E03F38
:10277000FDF7D3FF9DED080B41EC1A0B53EC102B2A
:1027800051EC100BFDF7D1FD53EC1A2BFDF7CDFDED
:1027900041EC1A0B9FEDFE0B53EC102B9DED080B3B
:1027A00051EC100BFDF7C1FD41EC1B0B9FEDFA0B3B
:1027B00051EC1A0B53EC102BFDF7B7FD41EC1A0B43
:1027C0009FEDF70B53EC102B9DED080B51EC100B0C
:1027D000FDF7ABFD53EC1A2BFDF79CFF41EC1A0BF8
:1027E00051EC1B0B53EC1A2BFDF7F3FE0690CDE9D1
:1027F00006519DED060B53EC1B2B51EC100BFDF716
:1028000089FF53EC1A2BFDF788FF41EC100B00F009
:10281000A1B90020B6F5801F0EDA9FEDE30B53EC53
:10282000102B9DED0E0B51EC100BFDF77EFDCDE94D
:102830000E016FF034000E4600EB2650A0F2FF3779
:10284000C6F31300DA4940F07F6646F040568842EE
:10285000D8BF002408DDD7498142C8BF012403DC6A
:102860000024A6F580167F1CD348784400EBC400F2
:102870000F9690ED00CB9DED0E0B53EC1C2B51EC05
:10288000100BFDF747FF9DED0E0B41EC1B0B53ECBE
:102890001C2B51EC100BFDF79CFE41EC100B51EC86
:1028A000190B53EC102BFDF73BFF41EC1D0B51ECCA
:1028B0001B0B53EC1D2BFDF738FD41EC1A0BBF48E9
:1028C0008DED10AB7844109590ED000B4FF000505B
:1028D00040EA660000EB84408DED080B00F5002017
:1028E00009909DED080B53EC1C2B51EC100BFDF7E0
:1028F00011FF9DED0E1B53EC112BFDF70EFF41EC6C
:10290000100B53EC102B9DED100B51EC100BFDF741
:102910000CFD9DED080B41EC1C0B53EC102B9DEDB9
:10292000100B51EC100BFDF700FD53EC1B2BFDF7CA
:10293000F4FE53EC1C2BFDF7EDFE53EC1D2BFDF7C5
:10294000F4FC41EC1C0B53EC1A2B51EC1A0BFDF769
:10295000ECFC41EC1B0B9A480621B0EE4B0AF0EE62
:102960006B0A784400F0E0FAB0EE401AF0EE601A1C
:10297000B0EE41DAF0EE61DA53EC1B2B51EC1B0B9D
:10298000FDF7D3FC53EC1D2BFDF7CFFC9DED100B99
:1029900041EC1B0B53EC1A2B51EC100BFDF719FEFD
:1029A00053EC1C2BFDF7C1FC53EC1B2BFDF711FE68
:1029B0009DED100B41EC1B0B53EC102B51EC100B4D
:1029C000FDF7B3FC41EC1D0B9FED7FEB53EC1E2B91
:1029D000FDF7FFFD53EC1B2BFDF7FBFD0890CDE948
:1029E00008519DED080B53EC1E2B51EC100BFDF71D
:1029F00091FE53EC1D2BFDF78DFE53EC1B2BFDF7C9
:102A00008CFE9DED080B41EC1D0B53EC102B9DED46
:102A1000100B51EC100BFDF788FC41EC1B0B53EC39
:102A20001A2B51EC1D0BFDF780FC9DED080B41ECC2
:102A30001A0B53EC102B51EC1C0BFDF776FC53ECEE
:102A40001A2BFDF7C6FD41EC1A0B51EC1B0B53EC96
:102A50001A2BFDF7BEFD0C90CDE90C519DED0C0B32
:102A600053EC1B2B51EC100BFDF754FE53EC1A2BBF
:102A7000FDF753FE41EC1B0B9FED550B53EC102B58
:102A80009DED0C0B51EC100BFDF74FFC41EC1A0BBC
:102A90009FED510B51EC1B0B53EC102BFDF745FC3C
:102AA00041EC1B0B9FED4E0B53EC102B9DED0C0BD3
:102AB00051EC100BFDF739FC53EC1B2BFDF789FD96
:102AC00041EC100B4848784400EBC40090ED001B2B
:102AD00051EC100B53EC112BFDF77BFD41EC1B0B64
:102AE0003846FDF7A3FECDE9080153EC1B2B51EC52
:102AF0001A0BFDF76EFD41EC100B3C48784400EBDF
:102B0000C40090ED00CB51EC100B53EC1C2BFDF7E7
:102B100060FD9DED081B53EC112BFDF75AFD06904F
:102B2000CDE906519DED080B53EC102B9DED060BE6
:102B300051EC100BFDF7EEFD53EC1C2BFDF7EAFDFD
:102B400053EC1A2BFDF7E6FD53EC1B2BFDF7E5FDCF
:102B500041EC100B9DED261B53EC102B8DED001B53
:102B600000959DED260B51EC100BFDF7DEFB9DED66
:102B7000000B41EC1A0B53EC102B9DED260B51EC86
:102B8000100BFDF7C7FD9DED061B53EC112B2FE03D
:102B9000000000604715F73FFE822B654715F73FA1
:102BA00044DF5DF80BAE543E0000000000004043DF
:102BB0008E9803007AB60B00D21D0000001E0000A4
:102BC0000A1D000000000000000000000000084096
:102BD000000000E009C7EE3FFD033ADC09C7EE3F05
:102BE000F5015B14E02F3EBE961B0000501B000059
:102BF000FDF79BFB53EC1A2BFDF7EBFC9DED060B51
:102C000041EC1A0B53EC102B9DED000B51EC100B0B
:102C1000FDF78BFBCDE90C019DED0C0B51EC1A0B74
:102C200053EC102BFDF7D5FCCDE902010C46AA4967
:102C30008C422FDB611A084318D19DED0C0B53EC2D
:102C4000102B9DED020B51EC100BFDF763FD41ECD9
:102C50001B0B9FEDA30B51EC1A0B53EC102BFDF744
:102C6000B8FC53EC1B2BFDF7F3FD2DD2022000F036
:102C70003BFA00F009FA10EE901A18EE900A8DED6A
:102C8000020B8DED008B61F31E0003909DED020B96
:102C9000FFF7BEBB944A24F00041914214D39349FC
:102CA000214408437FF4EFAC9DED0C0B53EC102B4B
:102CB0009DED020B51EC100BFDF72CFD53EC1A2B84
:102CC000FDF7C6FD7FF6DFAC24F000408849894A55
:102CD000002601EB205182422BDA481C4FF4801170
:102CE00021FA00F02044844AC0F30A517A44A1F248
:102CF000FF3192ED000B814A8DED080BCA4020EAAE
:102D00000202C0F3130040F48010C1F1140120FA54
:102D100001F60992002CB8BF76429DED080B53ECEA
:102D2000102B9DED0C0B51EC100BFDF7F3FCCDE9D6
:102D30000C019DED0C0B51EC1A0B53EC102BFDF715
:102D400048FC9FED6F0B0890CDE9085153EC102B18
:102D50009DED080B51EC100BFDF7E7FA41EC1B0B56
:102D60009FED690B53EC102B9DED080B51EC100BF4
:102D7000FDF7DBFA9DED0C0B41EC1C0B53EC102B1B
:102D80009DED080B51EC100BFDF7C4FC53EC1A2B16
:102D9000FDF7C3FC9FED5E1B53EC112BFDF7C5FA4D
:102DA00053EC1C2BFDF715FC41EC1A0B51EC1B0BE3
:102DB00053EC1A2BFDF70DFCCDE902019DED020B42
:102DC00053EC1B2B51EC100BFDF7A4FC53EC1A2B0E
:102DD000FDF7A3FC9DED020B41EC1A0B53EC102BFD
:102DE00051EC100BFDF7A1FACDE908014A489DED21
:102DF000080B0521784400F097F89DED081B51EC75
:102E0000100B53EC112BFDF790FA9DED021B53ECC8
:102E1000112BFDF782FCCDE906019DED020B53EC71
:102E20001A2B51EC100BFDF780FA53EC1A2BFDF71F
:102E3000D0FB9FED3B0B41EC1A0B53EC102B9DED9F
:102E4000060B51EC100BFDF765FC9DED060B41ECFC
:102E50001B0B53EC102B9DED020B51EC100BFDF7EF
:102E600064FA53EC1B2BFDF75BFC53EC1A2BFDF7BC
:102E700051FC9DED021B53EC112BFDF74BFC53EC69
:102E8000192BFDF74AFCCDE9020101EB06500115B3
:102E90000029C8BF039015DC9DED020B324651ECB2
:102EA000100BFDF7ACFCFFF7FCF9042808BF00F09D
:102EB000FBF832469DED020B51EC100BFDF79FFC29
:102EC000CDE902019DED020B51EC180B53EC102BD8
:102ED000FDF72BFAFFF73ABB00009040000000001E
:102EE000FE822B654715973C00CC904000346F3F25
:102EF00001FCFFFF0000E03FD8190000FFFF0F00BA
:102F000000000000432EE63F396CA80C615C20BE37
:102F1000EF39FAFE422EE63FA8180000000000003C
:102F2000000000000000004070B504462DED028B4B
:102F30004D1E00EBC500B0EE408AF0EE608A90EDC9
:102F4000000B35F0060017D053EC182B51EC100B8A
:102F5000FDF7EBF941EC100B6D1E04EBC50090ED95
:102F6000001B51EC100B53EC112BFDF732FB41EC25
:102F7000100B35F00600E7D1022D36D0042D1CD001
:102F8000062D1CBFBDEC028B70BD53EC182B51EC11
:102F9000100BFDF7CAF994ED0A1B53EC112BFDF74A
:102FA00018FB53EC182BFDF7C0F994ED081B53ECFC
:102FB000112BFDF70EFB41EC100B53EC182B51ECD1
:102FC000100BFDF7B2F994ED061B53EC112BFDF736
:102FD00000FB53EC182BFDF7A8F994ED040B53EC10
:102FE000102BFDF7F6FA41EC100B53EC182B51ECBB
:102FF000100BFDF79AF994ED021B53EC112BFDF722
:10300000E8FA53EC182BFDF790F994ED001B53EC04
:10301000112BFDF7DEFABDEC028B41EC100B70BDFD
:103020009FED070B10B553EC102B9FED070B51ECE8
:10303000100BFDF775FB41EC100B10BD00000000FC
:103040000000000000000000000000000000F03F51
:1030500010B553EC112B51EC100BFDF7BAFA41EC03
:10306000100B10BD000000009FED050B10B553ECD8
:10307000102B51EC100BFDF753FB41EC100B10BD66
:1030800000000000000000009FED050B10B553ECA0
:10309000102B51EC100BFDF748F941EC100B10BD53
:1030A00000000000000000709FED050B10B553EC10
:1030B000102B51EC100BFDF738F941EC100B10BD43
:1030C000000000000000001002E008C8121F08C144
:1030D000002AFAD170477047002001E001C1121F99
:1030E000002AFBD1704700000149086070470000CA
:1030F0008C00002000240125022686B0C827CDE9D7
:103100000145CDE9036401A90C48FDF703FD0B4817
:10311000FDF756FE05210948FDF700FE50B90748A6
:10312000FDF79EFD0023FF221946009700F01EF9CF
:10313000FEF76CFFFA2000F023F9E0E79000002092
:103140002DED068B82B04FF4967600F027F92C4DCA
:103150004FF400740090002221462846FEF74FF9F4
:103160009FED289B294F9FED2AABF2EE048A00BF0A
:10317000FFF756F800EE100AB8EE400A10EE100AFB
:10318000FDF745F953EC192BFDF7CFF8FDF752F990
:1031900008EE100A18EE100AB84201D1B7EE008A04
:1031A000B0EE480AFDF786FCFEF708FF00EE100AB5
:1031B000F8EEC00A80EEA80A10EE100AFDF727F913
:1031C00041EC100BB0EE4A1AF0EE6A1AFFF784F8E1
:1031D00051EC100BFDF72EF900EE100AB4EEC08A88
:1031E000F1EE10FA01D2012200E000222146284629
:1031F000FEF705F93146684600F0C9F8B8E7000067
:10320000000002400A817DF0B1265C3F0024F448B2
:10321000000000000000004082B0CDE9000121F074
:10322000004001909DED000B02B051EC100B704777
:10323000EFF30580002800D001207047DFF8688098
:103240004FF4807786B0002239464046FEF7D7F823
:10325000002501240226CDE9024601A91348049560
:103260000194FDF757FC1148FDF7AAFD05210F4811
:10327000FDF754FDA0B90D48FDF7F2FCC82100236D
:103280000091FF22194600F071F80949642808608E
:1032900001DA002200E0012239464046FEF7AFF88D
:1032A000FA2000F06DF8D6E7000002409000002000
:1032B000000000200EB5FEF7B5F8FEF7DDFEFEF7C4
:1032C000B3FDFEF76DFDFEF74DFEFEF793FD002406
:1032D00002A8029400F06EF811494860FEF774FEEF
:1032E000FDF7DEFB0325CDE90054002380220DA16C
:1032F000124801F003F8CDE900540023802210A108
:10330000134800F0FBFF0420CDE9000400238022D5
:1033100010A1154800F0F2FF00F000FDFEE70000EC
:10332000000000206C65637475726120706F7465B5
:103330006E63696F6D6574726F000000F530000890
:103340006C656374757261206C7563657300000051
:103350003D3200086C656374757261206469737432
:10336000616E6369610000004131000810B5401AC8
:10337000029CE41A6043511A90FBF1F0184410BD0E
:1033800010B500B9012000F0EBFB002010BD10B516
:1033900001B9012100F00AFC002010BD10B5FFF7B3
:1033A00047FF18B1BDE8104000F0E8BFBDE810408D
:1033B00000F0DEBF012000F08BBD00002DE9F041E0
:1033C000184C0F460546E6682068001D00F0E7FA35
:1033D00038B9206890F82C10012088402169814379
:1033E0002161681C07D137B12168BDE8F0410E4862
:1033F000091D00F00CBB20683544B54245602168CA
:1034000005D2A06BBDE8F041091D00F0E8BA606B81
:10341000091D00F0E4FAA06A854200D2A562BDE869
:10342000F08100002C000020700200202DE9F04106
:10343000054600F0F9FA2E4CA068401CA0602068F8
:103440002C4F10B1606940B32DE02560A0680128C1
:1034500029D1002606EB860007EB800000F0B1FAC8
:10346000761C072EF6D323488C3000F0AAFA2148A8
:10347000A03000F0A6FA1F48B43000F0A2FA1D48B0
:10348000C83000F09EFA1B48DC3000F09AFA194868
:103490008C3060631430A06305E02068E96AC06A7C
:1034A000884200D82560606A401C6062E96A012099
:1034B000226988401043206101EB810007EB800006
:1034C000291D00F0A4FA00F0CFFA606900280CD0A2
:1034D0002068E96AC06A884207D207494FF08050E5
:1034E0000860BFF34F8FBFF36F8FBDE8F08100001E
:1034F0002C0000209401002004ED00E070B5114E76
:10350000114C17E000F03EFC3068B8B101F028F82B
:1035100000F08AFAF068C568281D00F040FAA0683B
:10352000401EA0606068401E606000F09DFA284662
:1035300000F055F860680028E4D170BD01F010F883
:10354000F8E700005C0200202C00002030B4026C80
:103550000B46002A0BD0C1681144C1604468A142E7
:1035600001D30168C16030BC1846FCF7BABE30BC5C
:1035700070472DE9F041856B174604460026026C22
:1035800082B1C7B1E068FCF7ACFEE168206C091AB3
:10359000E1602268914202D26168081AE060022F5D
:1035A00016D017E02068A8B9606800F053FF0646FF
:1035B000002060600EE0A068FCF793FE216CA0681C
:1035C0000844A0606168884204D32068A06001E0DC
:1035D00005B16D1E6D1CA5633046BDE8F08110B5C8
:1035E0000446006B00F054FA2046BDE8104000F09D
:1035F0004FBA000010484FF47051420706D0C01D6A
:103600000D4920F00700411AC1F570510B4A002303
:103610000144C2E900030839103A21F007011160A2
:103620004B600B600B1AC0E9001393604FF0004031
:103630005360D060704700008402002078000020B2
:10364000074C4FF08056074DFFF758FF20680128C0
:10365000FAD92E60BFF34F8FBFF36F8FF4E70000EE
:103660009401002004ED00E02DE9F0479A46DDE9E1
:10367000098481466FF00303206B03EB8202104440
:10368000089D20F00706700707D0502080F31188AE
:10369000BFF34F8FBFF36F8FFEE723180A5C83F8E9
:1036A00034200A5C12B1401C1028F6D3002784F89D
:1036B0004370072D00D30625E562C4E91157201D8C
:1036C00000F08AF904F1180000F086F92461C5F1D0
:1036D00007006462A061E76484F85070524649466E
:1036E000304600F00FF92060B8F1000F01D0C8F8A3
:1036F0000040BDE8F087000030B5114900E01146F8
:103700000A688242FBD34B685C18844203D140684C
:1037100018444860084643681C18944209D1084C74
:10372000103C2468A24209D052681A4442600A68D8
:1037300012680260814200D0086030BD0460F9E781
:103740007800002010B5044600F06EF9A06B28B197
:103750005FF0000400F088F9204610BD0124F9E76D
:103760000648416B096829B1416BC968C968496855
:10377000816270474FF0FF31FAE700002C00002013
:1037800008484068401C4FF0500080F3118804D076
:10379000BFF34F8FBFF36F8FFEE7BFF34F8FBFF3C2
:1037A0006F8FFEE7800000202DE9F041044600F015
:1037B0003BF994F9455004F1240609E0606A48B1E8
:1037C000304600F093FE08B100F036FA6D1E6DB27F
:1037D000002DF3DC4FF0FF3684F8456000F044F92B
:1037E00000F022F994F9445004F1100709E020692F
:1037F00048B1384600F07AFE08B100F01DFA6D1E9F
:103800006DB2002DF3DC84F84460BDE8F04100F0B7
:103810002BB900002DE9F0410546002700F0B2FA6F
:10382000314E306808B9FFF7E5FEF06805424BD12C
:10383000C5B3083568070ED005F00700C0F10800D1
:103840000544680707D0502080F31188BFF34F8FDD
:10385000BFF36F8FFEE72DB37068854234D82248DE
:10386000103001460C6801E020460C466168A94210
:1038700002D221680029F7D131688C4224D0076830
:103880002168016060680837411B10290FD9601951
:10389000420708D0502080F31188BFF34F8FBFF349
:1038A0006F8FFEE710E041606560FFF725FF6168FC
:1038B0007068401A7060B268904200D2B060F068E0
:1038C00001430020C4E9000100F04AFE780707D058
:1038D000502080F31188BFF34F8FBFF36F8FFEE747
:1038E0003846BDE8F08100006800002004490868FF
:1038F00018B10868826C521C826408687047000026
:103900002C00002010B5031F4FF080741C601B1F9B
:1039100021F001011960191F044B0B6014390A6072
:10392000091F6FF0020244380A6010BD8137000899
:1039300000B52DED048B83B041EC190BFCF7C4FFEF
:1039400041EC180B18EE100A18EE901A8DED008B52
:10395000002818BF0120084320F00040C0F17F601C
:1039600000F1E040C00F14D019EE101A19EE900AC1
:103970008DED009B002918BF0121084320F0004075
:10398000C0F17F6000F1E040C00F04BF0120FFF7ED
:10399000ABFB51EC180B03B0BDEC048B00BDD0E9C0
:1039A000013201699A60D0E901235A604A68824273
:1039B00001D182684A60002202610868401E0860E6
:1039C000704700F108014FF0FF32C0E90112C160F9
:1039D000016100210160704700210161704730B52D
:1039E0000B685A1C02D000F1080202E0026904E0F0
:1039F0002246546825689D42FAD953684B60996005
:103A00008A60516008610168491C016030BD4268EC
:103A10004A6093688B60936859609160086101689F
:103A2000491C016070470000502080F31188BFF3EB
:103A30004F8FBFF36F8F0A494868401C48600128C8
:103A40000CD10848006810F0FF0F07D0502080F319
:103A50001188BFF34F8FBFF36F8FFEE770470000F1
:103A60008000002004ED00E00849486828B1401EAD
:103A7000486001D180F311887047502080F311888D
:103A8000BFF34F8FBFF36F8FFEE700008000002071
:103A900070B5002827D0144DA0F108046168E868CB
:103AA000014207D1502080F31188BFF34F8FBFF33D
:103AB0006F8FFEE722683AB1502080F31188BFF380
:103AC0004F8FBFF36F8FFEE78143616000F05AF9BB
:103AD00060686968084468602046FFF70DFEBDE82D
:103AE000704000F03DBD70BD6800002006484FF4F6
:103AF0007A710068B0FBF1F14FF0E020491E41619E
:103B000007210161704700002800002010B5FCF774
:103B1000A1FB114910280ED300F1E02090F8F0032A
:103B20000A78904207D2502080F31188BFF34F8F5C
:103B3000BFF36F8FFEE709480068896800F4E06012
:103B4000884207D9502080F31188BFF34F8FBFF30D
:103B50006F8FFEE710BD0000800000200CED00E03C
:103B600010B5020014D00F48006B38B1502080F31C
:103B70001188BFF34F8FBFF36F8FFEE700F002F99C
:103B800000211046FFF71AFC00F0EAFC002807D1DC
:103B900005494FF080500860BFF34F8FBFF36F8F20
:103BA00010BD00002C00002004ED00E070B50D46B3
:103BB00004000BD095B11E4A106BB8B1502080F3B1
:103BC0001188BFF34F8FBFF36F8FFEE7502080F354
:103BD0001188BFF34F8FBFF36F8FFEE7502080F344
:103BE0001188BFF34F8FBFF36F8FFEE700F0CAF865
:103BF000D26823685919934204D98B420AD9914259
:103C000002D807E08B42FAD9881A21600021FFF719
:103C1000D5FB00E0216000F0A3FC002807D1054996
:103C20004FF080500860BFF34F8FBFF36F8F70BDB0
:103C30002C00002004ED00E001490120C86170471C
:103C40002C00002010B50C4650B109490968183104
:103C5000FFF7C5FE2046BDE810400121FFF7AEBBCF
:103C6000502080F31188BFF34F8FBFF36F8FFEE7B3
:103C70002C00002070B5040039D01D4DE06A296881
:103C8000C96A884233D2A069002804DB2868C06A68
:103C9000C0F10700A061E16A164E01EB8101606985
:103CA00006EB810188421FD1201DFFF778FE01211C
:103CB00050B9E06A00EB800256F8222022B92A6946
:103CC00001FA00F082432A612868C06AE0622A692A
:103CD00081401143296100EB800006EB8000211D2B
:103CE000BDE87040FFF793BE2868C06AE06270BD0F
:103CF0002C0000209401002028B107490A6A0260C4
:103D0000C96841607047502080F31188BFF34F8F1E
:103D1000BFF36F8FFEE700002C0000201CB5154894
:103D20000024CDE900402346802213A1144800F06E
:103D3000E5FA012809D0401C1AD1502080F31188DF
:103D4000BFF34F8FBFF36F8FFEE7502080F31188D2
:103D5000BFF34F8FBFF36F8F06484FF0FF312C3802
:103D6000816201214161C460BDE81C4000F040B89F
:103D70001CBD00005800002049444C4500000000D4
:103D8000413600080248016B491C0163704700007E
:103D90002C0000201448016B11B10121C161704752
:103DA0000021C1610169B1FA81F1C1F11F0101EB8B
:103DB00081020E4951F822306BB101EB820101F111
:103DC00008034A6852684A609A4201D152684A60C0
:103DD000D16801607047502080F31188BFF34F8F86
:103DE000BFF36F8FFEE700002C000020940100203D
:103DF0001CB532480168324A914207D1502080F305
:103E00001188BFF34F8FBFF36F8FFEE700682C4917
:103E1000491E884207D1502080F31188BFF34F8F8D
:103E2000BFF36F8FFEE7274908780190FF200870E5
:103E300008788DF800009DF800009DF8002000F043
:103E4000F000904207D0502080F31188BFF34F8FCD
:103E5000BFF36F8FFEE79DF800001B4A00F0500093
:103E600010700720906005E09DF800305B008DF831
:103E70000030401E9DF800301B06F5D4000200F40F
:103E8000E0609060019808700C482030016841F4AF
:103E900070010160016841F070410160FFF726FE8A
:103EA00000205060FCF79CF90848016841F040414F
:103EB0000160FCF785F900201CBD000000ED00E06A
:103EC00071C20F4100E400E08000002034EF00E008
:103ED00010B502460021012000F00CF8041E07D0A6
:103EE0000021416001600B460A46C16000F020F9E4
:103EF000204610BD70B50E46050013D0D6B105FBA7
:103F000006F04830FFF786FC040009D004F14801B0
:103F100020468EB10160C0E90F56012100F0C4F8BF
:103F2000204670BD502080F31188BFF34F8FBFF340
:103F30006F8FFEE70020E4E70060ECE72DE9FF4F1C
:103F4000002683B09B468A46040003D0BAF1000FD6
:103F500008D011E0502080F31188BFF34F8FBFF3DA
:103F60006F8FFEE7206C38B1502080F31188BFF3CB
:103F70004F8FBFF36F8FFEE700F0ECF9DFF824817D
:103F80004FF000094FF0805748B9059838B15020DC
:103F900080F31188BFF34F8FBFF36F8FFEE7FFF7FA
:103FA00043FDA56B45B351462046E668FFF7CEFAC0
:103FB000BBF1000F13D0E660606A50B104F1240039
:103FC00000F094FA28B1C8F80070BFF34F8FBFF328
:103FD0006F8FFFF749FD012007B0BDE8F08F6D1E20
:103FE000A563206810B9FFF781FC60602069002894
:103FF000EFD004F11000E3E7059808B11EB106E028
:10400000FFF732FD27E06846FFF776FE0126FFF74F
:104010002BFDFFF7B7FEFFF707FD94F94400401CA6
:1040200001D184F8449094F94500401C01D184F8F2
:104030004590FFF719FD05A9684600F029F9002809
:1040400020460AD0FFF7B0FB00F08AFA2046FFF7BF
:1040500079FB0028A3D00020BEE7FFF773FBD8B19F
:10406000206830B9FFF7E0FC6068FFF703FEFFF758
:10407000FBFC04F124000599FFF7E4FD2046FFF75F
:1040800093FB00F06DFA002889D1C8F80070BFF3E7
:104090004F8FBFF36F8F82E72046FFF785FB00F05D
:1040A0005FFA7CE704ED00E070B50D46040025D012
:1040B000FFF7BAFCD4E90F20216802FB0011616010
:1040C0000021A1632168A1600A46D4E90F01401EC6
:1040D00000FB0121E16021464FF0FF3001F8440F61
:1040E000487004F110008DB1FFF76BFC04F124005F
:1040F000FFF767FCFFF7B8FC012070BD502080F38C
:104100001188BFF34F8FBFF36F8FFEE7216900293E
:10411000F0D000F0EBF90028ECD004494FF08050CB
:104120000860BFF34F8FBFF36F8FE3E704ED00E04C
:104130002DE9FF4782B01D468A464FF00008040073
:1041400003D0BAF1000F08D011E0502080F311889D
:10415000BFF34F8FBFF36F8FFEE7206C38B1502055
:1041600080F31188BFF34F8FBFF36F8FFEE7022DEF
:104170000AD1E06B012807D0502080F31188BFF3EB
:104180004F8FBFF36F8FFEE700F0E4F83F4F4FF023
:1041900000094FF0805648B9049838B1502080F398
:1041A0001188BFF34F8FBFF36F8FFEE7FFF73CFC23
:1041B000A06BE16B884207D3022D05D00498D0B1E3
:1041C000B8F1000F1AD01EE02A4651462046FFF7EC
:1041D000D0F9616A19B104F1240000F087F920B127
:1041E0003E60BFF34F8FBFF36F8FFFF73DFC0120A1
:1041F00006B0BDE8F087FFF737FC22E06846FFF71E
:104200007BFD4FF00108FFF72FFCFFF7BBFDFFF729
:104210000BFC94F94400401C01D184F8449094F9BB
:104220004500401C01D184F84590FFF71DFC04A90E
:10423000684600F02DF830B12046FFF7B5FA00F0DF
:104240008FF90020D4E7FFF7EFFBA06BE16B88420A
:1042500013D1FFF709FC04F110000499FFF7F2FCF9
:104260002046FFF7A1FA00F07BF900289ED13E60BE
:10427000BFF34F8FBFF36F8F98E7FFF7F5FB204633
:10428000FFF792FA00F06CF990E7000004ED00E00F
:1042900070B50D46040019D005B3FFF7C5FB164AEB
:1042A000D1682868431C0FD02368126A934202D059
:1042B00062688A421AD96268891A814216D2401A03
:1042C00028602046FFF718FD002410E0502080F3FE
:1042D0001188BFF34F8FBFF36F8FFEE7502080F33D
:1042E0001188BFF34F8FBFF36F8FFEE70124FFF7F5
:1042F000BBFB204670BD00002C0000202DE9FF5FB5
:104300008346DDE90E87994616468A469000FFF7F8
:1043100081FA05001AD05420FFF77CFA040012D06D
:1043200025630021CDE90241CDE900874B463246A5
:1043300051465846FFF798F92046FFF777F80120D5
:1043400004B0BDE8F09F2846FFF7A2FB4FF0FF3016
:10435000F6E700000548416919B1006B18B100206B
:104360007047012070470220704700002C00002099
:104370000148C068704700002C00002010B5FFF70E
:10438000C5FB0148C06810BD2C0000202DE9F0419C
:104390002E4C0027206B40B1A069401CA061E06951
:1043A00000B101273846BDE8F081E668761CE6607A
:1043B00013D1606B006838B1502080F31188BFF3CF
:1043C0004F8FBFF36F8FFEE7606BA16B6163A063DC
:1043D000206A401C2062FFF7C3F9A06ADFF87080F2
:1043E000864209D3606B006880B1606BC068C568A5
:1043F000686886420DD2A0622068C06A00EB800126
:1044000058F821000128CAD90127C8E74FF0FF302A
:10441000F1E7281DFFF7C3FAA86A18B105F11800E3
:10442000FFF7BDFAE86A0121226981401143216149
:1044300000EB800108EB8100291DFFF7E8FAE86A2C
:104440002168C96A8842CDD30127CBE72C00002020
:104450009401002070B504004FF0000140D0214DC0
:104460002868844207D0502080F31188BFF34F8F13
:10447000BFF36F8FFEE7A06C38B1401EA064636C81
:10448000E26A9A422CD040B12AE0502080F3118891
:10449000BFF34F8FBFF36F8FFEE7201DFFF77FFA4B
:1044A000114A012150B9E06A00EB800352F8233031
:1044B00023B92B6901FA00F083432B61606CE06241
:1044C000C0F10700A061E06A2B69814019432961AE
:1044D00000EB800002EB8000211DFFF798FA01211C
:1044E000084670BD2C000020940100202DE9F04109
:1044F000C068C468ACB104F118000746FFF74FFA72
:10450000154D286B0126A0B139461448FFF77FFAF4
:10451000E06A2968C96A88421CD90120EE61BDE8B9
:10452000F081502080F31188BFF34F8FBFF36F8F5E
:10453000FEE7201DFFF733FAE16A2A6906FA01F067
:104540001043286101EB81000449B43901EB80007C
:10455000211DDBE70020E2E72C00002048020020BC
:104560002DE9F0472C4D00242746286B38B1FFF782
:104570005BFA286B401E2863286B40B146E0502050
:1045800080F31188BFF34F8FBFF36F8FFEE7A968E9
:10459000224E0120D1B3A6F1B40980463068E8B1BB
:1045A000F068C46804F11800FFF7F9F9201DFFF75F
:1045B000F6F9E06A2A6908FA00F11143296100EB73
:1045C000800109EB8100211DFFF721FAE06A2968CB
:1045D000C96A8842E2D3C5F81C80DFE70CB1FFF757
:1045E000BFF8AC6944B14646FFF7D0FE00B1EE61BA
:1045F000641EF9D10020A861E86938B10849012793
:1046000038070860BFF34F8FBFF36F8FFFF72CFAA7
:104610003846BDE8F08700002C000020480200204A
:1046200004ED00E0000000000000000001020304AF
:104630000607080900000000010203040000000052
:10464000000000000000F03F000000000000F83F04
:1046500000000000000000000000004003B8E23F3E
:10466000000000000000000006D0CF43EBFD4C3EF0
:10467000033333333333E33FFFAB6FDBB66DDB3FE5
:104680004D268F515555D53F01411DA96074D13F2D
:1046900065DBC9934A86CD3FEF4E454A287ECA3F27
:1046A0003E5555555555C53F93BDBE166CC166BFA9
:1046B0002CDE25AF6A56113FF16BD2C541BDBBBEA2
:1046C000D0A4BE726937663E000000000000000002
:1046D000F04600080000002090000000C8300008EC
:1046E0008047000890000020F8410000D830000802
:1046F00000000000000000000000000000000000BA
:1047000000000000000000000000000001000000A8
:1047100010000000000000000024F4000000000071
:104720000000000000000000000000000000000089
:104730000000000000000000000000000000000079
:104740000000000000000000000000000000000069
:104750000000000000000000000000000000000059
:104760000000000000000000000000000000000049
:1047700000000000AAAAAAAA000000000000000091
:040000050800018965
:00000001FF
