:020000040800F2
:10000000D84200205D020008CF2400089721000894
:10001000CD240008390A0008C129000800000000AA
:10002000000000000000000000000000A101000826
:10003000490A000800000000F50100081526000824
:1000400077020008770200087702000877020008AC
:1000500077020008770200084B0A000877020008C0
:1000600077020008510A00087702000877020008AA
:10007000770200087702000877020008770200087C
:10008000770200087702000877020008770200086C
:100090003D0A00087702000877020008770200088E
:1000A000770200081D270008770200087702000881
:1000B000770200087702000877020008770200083C
:1000C000770200087702000877020008770200082C
:1000D000770200087702000877020008770200081C
:1000E000770200087702000877020008770200080C
:1000F00077020008770200087702000877020008FC
:1001000077020008770200087702000877020008EB
:1001100077020008770200087702000877020008DB
:1001200077020008770200087702000877020008CB
:1001300077020008770200087702000877020008BB
:1001400077020008770200087702000877020008AB
:10015000770200087702000877020008770200089B
:10016000770200087702000877020008770200088B
:1001700077020008770200087702000800000000FC
:100180007702000877020008DFF810D000F0B0FB1B
:100190000048004701320008AFF30080D842002039
:1001A0002B4B19680868B0E8F04F80F30988BFF35B
:1001B0006F8F4FF0000080F311887047000000003F
:1001C00006480068006880F3088862B661B6BFF32D
:1001D0004F8FBFF36F8F00DF00BF00BF08ED00E05F
:1001E000DFF80C00016841F470010160704700BF46
:1001F00088ED00E0EFF30980BFF36F8F144B1A68AE
:100200001EF0100F08BF20ED108A20E9F04F10609B
:1002100008B44FF0500080F31188BFF34F8FBFF345
:100220006F8F03F00BFD4FF0000080F3118808BCC6
:1002300019680868B0E8F04F1EF0100F08BFB0EC66
:10024000108A80F30988BFF36F8F704700BF00BF2B
:1002500080000020EFF305807047000006488047CB
:1002600006480047FEE7FEE7FEE7FEE7FEE7FEE79B
:10027000FEE7FEE7FEE7FEE7C92600088901000861
:100280002DE9F05F0546002092469B4688460646CB
:10029000814640241BE0284641464746224600F05E
:1002A00008FA53465A46C01A914110D311461846CF
:1002B000224600F0EFF92D1A67EB01084F4622465F
:1002C0000120002100F0E6F917EB00094E41201E45
:1002D000A4F10104DFDC484631462A464346BDE826
:1002E000F09F40EA01039B0703D009E008C9121FF1
:1002F00008C0042AFAD203E011F8013B00F8013BE0
:10030000521EF9D27047D2B201E000F8012B491E0B
:10031000FBD270470022F6E710B513460A460446A2
:100320001946FFF7F0FF204610BD2DE9FE4F80462D
:1003300081EA0300C00F0C46009021F0004123F039
:100340000045B8EB0200A94105D24046214690463F
:100350001C460B46024623F00040104347D0270DB1
:10036000C7F30A00C3F30A510290401A01904028D3
:100370006BDAC3F3130040F4801B0098924620B15F
:100380000023D2EB030A63EB0B0B01985946C0F133
:100390004002504600F07EF906460D46504659464A
:1003A000019A00F096F910EB08006141002487EAF9
:1003B000115284EAE7731A4340D0009A62B3019A5B
:1003C000012A4FEA075215DC001B61EB02014FF0D6
:1003D000004202EA0752CDE90042001C41F58011BB
:1003E00032462B4600F0CDF903B0BDE8F08F404611
:1003F0002146F9E7001B61EB0201001C41F5801367
:1004000000185B412018A2F5001747EB030140EAF2
:10041000D570B6196D4111E06D084FEA360645EA10
:10042000C0754FEA0752001B61EB0201001C41F549
:10043000801149084FEA30000019514132462B46DD
:1004400003B0BDE8F04F00F08DB9009801224000E4
:100450000023D0EB020263EBE073009821464FEAE1
:10046000E074B8EB000061EB0401E9E783F00043BE
:100470005BE781F0004158E72DE9FE4F81EA030474
:1004800004F0004421F0004100944FF0000B23F0F1
:10049000004350EA01045ED052EA03045BD0C3F388
:1004A0000A54C1F30A552C44A4F2F3340194A0FB7E
:1004B0000254C1F3130141F48011C3F3130343F455
:1004C000801301FB024400FB034E840A970A44EAAE
:1004D000815447EA8357A4FB076802958D0A05FB00
:1004E00007854FEA932C04FB0C542705029D4FEA25
:1004F000065847EA1637B5EB08056EEB070C870E72
:10050000920E47EA811742EA8312A7FB0201B6EB7B
:100510000B0164EB00042B0D43EA0C335E1844EB33
:100520001C50DA465146E7FB0201C5F313044FEABB
:100530000B3343EA14534FEA0432019C43EA0603A7
:10054000A4F10C040294009CCDE900B400F019F968
:1005500003B0BDE8F08F00200146F9E72DE9F04D2A
:1005600081EA030404F0004B21F0004514464FF0EB
:10057000000A23F0004150EA050220D054EA0102AB
:100580001DD0C5F30A570246C5F31303C1F3130088
:10059000C1F30A5640F4801543F48013A7EB060814
:1005A000101BD64608F2FD3873EB050002D308F1A4
:1005B000010801E092185B41B8F1000F03DA002056
:1005C0000146BDE8F08D00204FF4801106468446B8
:1005D0000EE0171B73EB050705D3121B63EB050336
:1005E00006434CEA010C49084FEA300092185B417F
:1005F00050EA0107EDD152EA030012D082EA04006A
:1006000083EA0501084305D0101BAB4106D2012245
:10061000002306E000224FF0004302E06FF00102E9
:1006200053101AEB06004CEB085110EB0A0041EB9B
:100630000B01BDE8F04D00F095B80EB5C10F80EA92
:10064000E0700844CA07002140F233438DE80E00F1
:100650000A460B4600F095F803B000BD01F00043D8
:1006600030B421F0004150EA010206D00A0DA2F593
:100670006072C1F31301002A02DC30BC0020704715
:10068000440F44EAC104C100E01830BC00EBC25082
:1006900000F031B8202A04DB203A00FA02F10020F1
:1006A00070479140C2F1200320FA03F319439040B0
:1006B0007047202A04DB203A21FA02F0002170471B
:1006C00021FA02F3D040C2F12002914008431946BA
:1006D0007047202A06DBCB17203A41FA02F043EAA2
:1006E000E07306E041FA02F3D040C2F120029140EB
:1006F0000843194670470029A8BF7047401C4900AD
:1007000008BF20F00100704710B4B0FA80FC00FA76
:100710000CF050EA010404BF10BC704749B1CCF1A1
:10072000200421FA04F411FA0CF118BF012121432D
:100730000843A3EB0C01CB1D4FEA00614FEA1020E8
:1007400042BF002010BC704700EBC350104400298A
:10075000A4BF10BC7047401C490008BF20F0010036
:1007600010BC704710B5141E73F1000408DA401C69
:1007700041F1000192185B411A4301D120F00100C0
:1007800010BD2DE9F04D92469B4611B1B1FA81F2B0
:1007900002E0B0FA80F220329046FFF77BFF044679
:1007A0000F4640EA0A0041EA0B0153465A46084305
:1007B00013D0114653EA010019D0C8F14002504647
:1007C000FFF777FF05460E46504659464246FFF76B
:1007D00061FF084305D0012004E020463946BDE80A
:1007E000F08D0020054346EAE0762C4337430A9813
:1007F0006305E40AA0EB08000022FD0A44EA47541E
:100800000A3002D500200146E9E7010510196941C7
:10081000DDE9084500196941BDE8F04DA2E72DE981
:10082000F04D00231A461B1A8A4103DB00200146C3
:10083000BDE8F08DC1F30A52C1F3130141F48015F4
:100840004FF0000BD10702D100186D41521E002756
:10085000044640F2FF11384601EB620A3E468046EC
:10086000024600204FF48011FFF723FFC2197141A7
:10087000BB1846EB0100B4EB030C75EB000C04D382
:10088000E41A65EB000517460E46241908F101002D
:100890006D4180463428E3DDF91946EB0600091B5B
:1008A000A84103D24FF0FF32134601E00022134665
:1008B0001BEB070046EB0A51BDE8F04DFFF752BFB6
:1008C00030B5041E71F1000404DB4FF000444042D7
:1008D00064EB0101141E73F1000405DB1C464FF0AC
:1008E0000043524263EB04038B4208BF824230BD97
:1008F000064C074D06E0E06840F0010394E807006D
:1009000098471034AC42F6D3FFF742FC504600083B
:1009100070460008454910B54A6822F440324A60E2
:100920004A6843681A434A6001684A6822F4807240
:100930004A6001684A68036942EA03224A60016822
:100940004A6822F040724A6001684A6883681A4324
:100950004A6001688A6822F400628A6001688A68D5
:10096000C3681A438A60816A6FF07062D14201687D
:100970008A6822F070628A6001688A680CD0836A93
:100980001A438A6001688A6822F040528A600168CE
:100990008A68C36A1A4301E022F040528A60016803
:1009A0008A6822F002028A6001688A68836942EAE2
:1009B00043028A60016A002901684A680FD042F444
:1009C00000624A6001684A6822F460424A60016835
:1009D0004A68174C436A04EB43331A4301E022F49C
:1009E00000624A600168CA6A22F47002CA62016841
:1009F000CA6A838B0F4C04EB03531A43CA62016823
:100A00008A6822F400728A6001688A68036B42EA8D
:100A100043228A6001688A6822F480628A600168E1
:100A20008A68406942EA8020886010BD0023014046
:100A300000E0FFFF0000F0FFFEE70000014800F0CB
:100A4000F0B900002C0100207047012000F0CCBB61
:100A5000082000F0C9BB000010B5164C2DED048B2A
:100A6000B0EE418AB0EE609A6068F0EE408AB0B1B4
:100A700000235A1E194603F0CDF9012817D1C4ED01
:100A8000038A84ED049A84ED058A60680023BDEC36
:100A9000048B1A461946BDE8104003F0B5BA502041
:100AA00080F31188BFF34F8FBFF36F8FFEE7BDEC6C
:100AB000048B10BD4C00002078B50024009490F801
:100AC0003C20012A19D0012280F83C200A68072323
:100AD0000568092A13D9EE680A3A02EB42029340EC
:100AE0009E43EE600B788A680A3B03EB43039A400F
:100AF0000368DD682A43DA6010E0022078BD2E69C1
:100B000002EB420293409E432E610B788A6803EB0E
:100B100043039A4003681D692A431A614A681F23E8
:100B2000072A13D205686E6B521E02EB82029340B5
:100B30009E436E630B790A885B1E92B203EB8303BC
:100B40009A4003685D6B2A435A6327E005680D2AC3
:100B500012D22E6BD21F02EB820293409E432E6371
:100B60000B790A88DB1F92B203EB83039A40036878
:100B70001D6B2A431A6311E0EE6A0D3A02EB820202
:100B800093409E43EE620B790A880D3B92B203EBD1
:100B900083039A400368DD6A2A43DA62164B0568CC
:100BA000144A9D4206D10D68122D03D1556845F4B3
:100BB0008005556005689D4218D10B68102B01D047
:100BC000112B13D1536843F40003536009681029B3
:100BD0000CD10A490A4A0968B1FBF2F101EB810123
:100BE000490000E0491E00910029FBD180F83C40FB
:100BF000002078BD00230140002001407C0000203F
:100C000040420F000068C06C704770B504004FF0A0
:100C1000000503D0206C002610B107E0012070BD54
:100C2000666484F83C60204600F01AF8206CC00628
:100C300010D4206C20F4885040F00200206420463C
:100C4000FFF768FE6664206C20F0020040F00100AF
:100C5000206400E0012584F83C60284670BD000057
:100C600010B586B0044614216846FFF753FB1149BE
:100C7000206888421CD110480021026842F480722A
:100C80000260006800F4807005900B481438026818
:100C900042F001020260006800F0010005900720A8
:100CA00000900320CDE901016946044800F0A8FA4C
:100CB00006B010BD00200140443802400000024050
:100CC0002DE9F041044600680D4681684FF00007A9
:100CD00049050BD58068C00508D5206C40F0200080
:100CE000206484F83C700120BDE8F08100F06AFBCC
:100CF00006460FE0681C0DD025B100F063FB801B99
:100D0000A84207D9206C40F00400206484F83C70AD
:100D10000320E9E7206800688007EBD521686FF0C1
:100D200012000860206C40F4007020642068816824
:100D300011F0405F13D1A16989B9C16A11F4700F34
:100D400002D0806840050AD4206C20F480702064B2
:100D5000206CC00403D4206C40F00100206400200B
:100D6000C2E7000018B50021009190F83C20012A4C
:100D700007D0012280F83C2002689368DB0702D08C
:100D800011E0022018BD936843F001039360204AEC
:100D9000204B1268B2FBF3F202EB420200E0521E5B
:100DA0000092002AFBD102689368DB072DD0036C08
:100DB00040F20164A34343F48073036453685B050A
:100DC00005D5036C23F4005343F480530364036C90
:100DD000DB0404D5436C23F00603436400E0416464
:100DE00080F83C100C496FF02203136049680068DA
:100DF000C90602D00949884207D1816811F0405FD5
:100E000003D1816841F080418160002018BD00005D
:100E10007C00002040420F000023014000200140E0
:100E200070472DE9F05F0546006800244669D0F858
:100E300004908768D0F80CB0D0F810A0D0F81880D3
:100E4000F10748D0F90714D001218160B80703D514
:100E5000284600F0B5F90CE0780702D54FF400649D
:100E600007E0380702D54FF4805402E0284600F02E
:100E7000A6F9F80516D529684FF480708860B80582
:100E800003D5284600F09EF90CE0780502D544F41D
:100E9000005407E0380502D544F4804402E02846B7
:100EA00000F08FF9F80316D529684FF48030886078
:100EB000B80303D5284600F087F90CE0780302D583
:100EC00044F4004407E0380302D544F4803402E0DF
:100ED000284600F078F9300707D55FEACB6004D5E3
:100EE0002968102044F40074C86070074FF00807A8
:100EF00007D55FEA0B7004D52868C760284600F064
:100F000059F9B00706D52868C068800702D028467E
:100F100000F051F9700607D55FEACA6004D5296868
:100F2000102044F480640861B00607D55FEA0A70B7
:100F300004D528680761284600F03EF9F00606D57A
:100F400028680069800702D0284600F036F9B0030F
:100F500008D55FEAC96005D5296810204860284691
:100F600000F02CF9F00307D55FEA097004D5286872
:100F70004760284600F029F9300446D55FEA4970F9
:100F800040D5F00504D55FEAC87001D044F00104F3
:100F9000B00504D55FEA887001D544F002047005FD
:100FA00004D55FEA487001D544F00404300529D522
:100FB00018F0700F26D008F07000402815D006DC1D
:100FC000102809D020280AD0302816D10AE050284D
:100FD0000ED0602811D10EE044F008040DE044F07A
:100FE00010040AE044F0200407E044F0400404E068
:100FF00044F0800401E044F480742868816921F0A1
:1010000070018161296804204860002C05D0686A5D
:10101000204368622846FFF703FFBDE8F09F70B5E4
:10102000040003D094F8200010B104E0012070BD4A
:10103000204600F081F82068016821F0020101607B
:1010400000F0C0F90546052604E000F0BBF9401B9E
:101050000A2811D8206840688007F6D42068016803
:1010600041F00101016000F0ADF905460BE000F030
:10107000A9F9401B0A2806D9606A40F40030606272
:1010800084F82060D2E720684068C007EFD0207E57
:101090000128206801683DD021F080010160607E58
:1010A00001282068016838D021F040010160A07E4D
:1010B00001282068016833D021F020010160E07E22
:1010C0000128206801682ED041F010010160207FC6
:1010D00001282068016829D021F008010160607FA3
:1010E00001282068016824D021F004010160D4E9BE
:1010F00002010843D4E90412114308436168491E00
:1011000008432168C86100206062012084F8200043
:10111000002070BD41F08001C0E741F04001C5E70B
:1011200041F02001CAE721F01001CFE741F00801AA
:10113000D4E741F00401D9E710B586B00446142184
:101140006846FFF7E7F818492068884229D1174810
:101150000021026842F000720260006800F0007036
:10116000059012481038026842F0020202600068DE
:1011700000F0020005904FF4407000900220CDE98D
:10118000010103200390092004906946084800F0FB
:1011900037F800220521142000F09EF9142000F0F9
:1011A0008FF906B010BD00000064004040380240D6
:1011B000000402407047704770477047704770479F
:1011C00070477047704770477047704708B50021F7
:1011D0000091082804D103486946006902F0C4FF61
:1011E00008BD000000000020044910B50A68024252
:1011F00002D00860FFF7EAFF10BD0000143C014078
:101200002DE9F84FDFF87CB100224FF001084FF0D4
:10121000030A4FF00F090BF1040E00BF0B6808FA28
:1012200002F42340A3426ED14D68022D01D0122D4D
:101230000ED1D50800EB850CDCF820505607F70ED0
:1012400009FA07F6B5430E69BE402E43CCF820607C
:10125000066855000F790AFA05FC07F0030726EA2D
:101260000C06AF40374307604E68012E05D0022EB2
:1012700003D0112E01D0122E0ED18668CF6826EA37
:101280000C06AF40374387604668A6430C79C4F329
:101290000014944034434460C6688C6826EA0C0607
:1012A000AC403443C4604C68E40065D5364C2568D6
:1012B00045F480452560246822F0030504F4804449
:1012C0000094324C2E19D6F8084895072F0F09FACA
:1012D00007F5AC432E4DA84201D1002524E02D4D49
:1012E000A84201D101251FE02B4DA84201D10225C2
:1012F0001AE02A4DA84201D1032515E0284DA84245
:1013000002D1042510E037E0264DA84201D1052581
:101310000AE0254DA84201D1062505E0234DA8424B
:1013200001D1072500E00825BD402543C6F808582F
:10133000DBF800405D464E689C43F60300D51C4335
:101340002C60DEF8004075464E689C43B60300D51D
:101350001C432C600B4D08352C684E689C43F602EC
:1013600000D51C432C60074D0C352C684E689C43FF
:10137000B60200D51C432C60521C102AFFF44EAF5D
:10138000BDE8F88F003C0140443802400030014085
:10139000000002400004024000080240000C02402D
:1013A000001002400014024000180240001C0240DD
:1013B0000069084000D0012070470AB18161704780
:1013C0000904FBE7014880687047000070000020B6
:1013D00002488168027811448160704770000020E3
:1013E0000B4810B5016841F400710160016841F4D7
:1013F00080610160016841F480710160032000F0A8
:101400008BF8002000F006F800F03EF8002010BD38
:10141000003C024010B5014688B00022192000F0BF
:101420005BF8192000F04CF813480024016841F0E3
:1014300001010160006805A900F0010006906846FE
:1014400000F014F900F032F90C494000B0FBF1F162
:101450000C480B4A491E026040F2E732C0E90324FF
:10146000C0E9011400F0AEFD10B1012008B010BDBC
:10147000044800F0C3FDF9E74438024040420F0041
:1014800000000140AC0100200C4882B0016841F42A
:1014900080410160006800F4804000900748001F10
:1014A000016841F0805101600068002200F0805026
:1014B00000900F21901E02B000F00EB84438024098
:1014C00000F01F02012191404009800000F1E0205E
:1014D000C0F8001170470000F0B40E4B1B680C46BA
:1014E000C3F30223C3F10705042D00D90425191DF8
:1014F000072901D2002300E0DB1E012606FA05F1D0
:10150000491E214099409E40761E16403143F0BC52
:1015100000F0DEBF0CED00E0064900F007020868AD
:101520004FF6FF03184040EA0220034A10430860C8
:10153000704700000CED00E00000FA052DE9F047CF
:101540000E46050065D0DFF81481D8F80000F7B228
:1015500000F00F00B04207D288F80070D8F8000001
:1015600000F00F00B04254D128683D4C810712D5DD
:10157000400703D5206840F4E05020602878000739
:1015800003D5206840F4604020602068A96820F0FE
:10159000F000084320602878C0072DD030496868E3
:1015A0000839012812D0022813D0032811D0096865
:1015B000890700292DDA216821F003010143216008
:1015C000FFF700FF814641F2883A0EE0096889037F
:1015D000EFE709688901ECE7FFF7F4FEA0EB0901EA
:1015E000514502D90320BDE8F0872068696800F002
:1015F0000C00B0EB810FEFD1D8F80010404601F09D
:101600000F01B14207D90770006800F00F00B04227
:1016100001D00120E7E72878400705D52068E96870
:1016200020F4E050084320602878000706D52068A1
:10163000296920F4604040EAC100206000F046F8CB
:101640002168084AC1F30311515CC840064908608B
:101650000020FFF7DFFE0020C5E70000003C02404D
:1016600008380240984500087C0000200F220260E4
:101670000C4A136803F003034360136803F0F0039C
:101680008360136803F4E053C36012684FF4E053BF
:1016900003EAD20202610448006800F00F0008600B
:1016A0007047000008380240003C024004480549E9
:1016B00000680968044AC1F34231515CC840704770
:1016C0007C00002008380240A8450008154810B5E5
:1016D000006810F00C02144813D04110042A0FD0F7
:1016E000082A0ED10F4C241F2268236802F03F0203
:1016F0005B0207D52068C0F38810A0FB010106E05B
:10170000084610BD2168C1F38811A1FB0001002328
:10171000FEF7B6FD2168C1F30141491C4900B0FB49
:10172000F1F010BD083802400024F4002DE9F84F14
:10173000050076D02878DFF8F8B2BE4CC00749D053
:10174000DBF800105846C1F38101012908D0006878
:10175000C0F3810002280AD1201D0068400206D58E
:101760002068800336D568680028E2D032E06868D7
:10177000B0F5803F10D0B0F5A02F206810D020F435
:1017800080302060206820F4802020606868A0B14C
:10179000FFF718FE06460CE0206840F48030F4E7BE
:1017A00040F480202060F7E7FFF70CFE801B6428E0
:1017B00073D820688003F7D50CE0FFF703FE0646D8
:1017C00005E000BFFFF7FEFD801B6428F0D820680D
:1017D0008003F7D42878DFF8608280074FF0000993
:1017E0003ED5DBF80010584611F00C0F09D0006808
:1017F000C0F3810002280BD18D48001F0068400211
:1018000006D42068800715D5E868012809D111E0C1
:10181000E868B8B10120C8F80000FFF7D3FD06461C
:1018200005E002E1FFF7CEFD801B0228C0D820684A
:101830008007F7D52068296920F0F80040EAC10048
:1018400020600DE0C8F80090FFF7BCFD064604E0FC
:10185000FFF7B8FD801B02281FD820688007F7D447
:101860002878000722D5724E744869696C3671B1C8
:1018700001210160FFF7A6FD074604E0FFF7A2FD86
:10188000C01B022809D830688007F7D50EE0C0F8E1
:101890000090FFF797FD074605E083E0FFF792FD14
:1018A000C01B02287ED830688007F7D4287840070C
:1018B00068D5DFF87CA100270AF1380ADAF80000C1
:1018C000C0000BD4DAF8001041F08051CAF80010C3
:1018D000DAF80000012700F080500090584E306880
:1018E000C00510D4306840F480703060FFF76AFDA6
:1018F000009005E0FFF766FD0099401A022851D8D4
:101900003068C005F6D54A4EA868683601280FD061
:101910000528306810D020F001003060306820F0D9
:1019200004003060A868B8B1FFF74CFD00900FE0EC
:10193000306840F00100F4E740F004003060F7E761
:10194000FFF740FD0099411A41F28830814264D886
:1019500030688007F4D50EE0FFF734FD009007E013
:10196000FFF730FD0099411A41F28830814254D886
:1019700030688007F4D42FB1DAF8001021F08051DC
:10198000CAF80010A869C0B3DBF80010C1F38101E8
:1019900002294AD00228484607D0C8F86000FFF75D
:1019A00011FD00E039E005463AE04746C8F860001E
:1019B000FFF708FD064604E0FFF704FD801B022840
:1019C0002BD820688001F7D4D5E907010843A96A1C
:1019D0001C4A490802EB01416A6A41EA8211084344
:1019E00095F82C1040EA01611148001F01600120A8
:1019F0003866FFF7E7FC054605E014E0FFF7E2FC78
:101A0000401B022809D820688001F7D50BE000BFF1
:101A1000FFF7D8FC401B022802D90320BDE8F88F4D
:101A200020688001F4D40020F8E70120F6E70000E8
:101A3000083802400038024000004742800E47420A
:101A4000007000400000FFFF70B5040005D00025C5
:101A5000A56294F8510010B106E0012070BD84F831
:101A60005050204600F030F8022084F851002068E1
:101A7000016821F040010160D4E901010843D4E983
:101A800003121143084361690843218B01F400717B
:101A90000843E1690843216A0843A16A08432168B1
:101AA0000860A069042101EA1040616A08432168C6
:101AB00048602068C16921F40061C1616565012049
:101AC00084F85100002070BD10B586B00446142182
:101AD0006846FEF71FFC13492068884220D112484F
:101AE0000021026842F480520260006800F48050D5
:101AF00005900D481438026842F001020260006847
:101B000000F001000590E02000900220CDE90101E5
:101B1000032003900520049069460448FFF770FBFA
:101B200006B010BD003001404438024000000240C1
:101B30002DE9F84F044640680026984617460D46A2
:101B40004FF00409B0F5827F01D1A06890B194F8FC
:101B50005000012819D04FF0010B84F850B0FFF766
:101B600031FC009094F851004FF0000A01280ED08B
:101B700002267FE084F8519013460A462046CDF8AD
:101B8000008000F031F9BDE8F88F0220FBE7002D5E
:101B90006FD0002F6DD084F85190C4F854A0A56385
:101BA000A787E787C4F830A0A4F834A0A4F836A02B
:101BB000C4F840A0C4F844A0A0684FF40047B8425D
:101BC00004D12068016821F4804101602068016827
:101BD000490603D4016841F040010160E068B8B1F2
:101BE00033E020688168C90706D0007B05F8010B47
:101BF000E08F401EE0870BE0B8F1000F23D0B8F172
:101C0000FF3F05D0FFF7DEFB0099411A41451AD28C
:101C1000E08F0028E5D11BE020688168C90706D065
:101C2000C06825F8020BE08F401EE0870DE0B8F198
:101C3000000F08D0B8F1FF3F07D0FFF7C3FB0099B2
:101C4000411A414501D3032614E0E08F0028E3D177
:101C50006068B0F5827F0AD1A068B84202D0B0F5C2
:101C6000806F04D12068016821F040010160606D3F
:101C700000B1012684F851B084F850A0304682E7C4
:101C80002DE9F84F044690F8500000269946174673
:101C90000D4601280DD04FF0010B84F850B0FFF72E
:101CA00091FB804694F85100B246012804D00226E8
:101CB00094E00220BDE8F88F002D7BD0002F79D072
:101CC000032084F85100C4F854A02563A786E78652
:101CD000C4F838A0A4F83CA0A4F83EA0C4F844A0DE
:101CE000C4F840A0A068B0F5004F04D12068016896
:101CF00041F48041016020680168490603D401680D
:101D000041F040010160E068B0F5006F606804D008
:101D100030B3E08E012823D03EE010B1E08E0128E0
:101D20001AD135F8021B206805E020688168890710
:101D300006D535F8021BC160E08E401EE0860BE040
:101D4000B9F1000F34D0B9F1FF3F05D0FFF73AFBEE
:101D5000A0EB080149452BD2E08E0028E5D11EE01A
:101D6000216815F8010B087306E02068816889076F
:101D700006D515F8011B0173E08E401EE0860BE0CE
:101D8000B9F1000F14D0B9F1FF3F05D0FFF71AFBEE
:101D9000A0EB080149450BD2E08E0028E5D14B4667
:101DA000012202212046CDF8008000F0D9FB10B1BD
:101DB000032613E011E042464946204600F098FB16
:101DC00018B101262020606508E0A06818B92068D5
:101DD000C16880680090606D00B1012684F851B040
:101DE00084F850A0304665E72DE9F84F044690F896
:101DF000500000260A9F9A4693460D464FF0010870
:101E000001280ED0012084F85000FFF7DBFA81464C
:101E100094F85100616801280CD0B1F5827F07D198
:101E200002E00220BDE8F88FA16809B9042801D0BA
:101E30000226BDE055B1BBF1000F07D0BAF1000F8B
:101E400004D094F85100012802D004E00126AFE04C
:101E5000052084F8510000206065C4F838B0A4F86B
:101E60003EA0A4F83CA02563A4F836A0A4F834A0B2
:101E70002064606420680168490603D4016841F069
:101E800040010160E068B0F5006F606804D0E8B31D
:101E9000E08E01283BD06AE010B1E08E01282ED1FF
:101EA000216835F8020BC860E08E401EE08626E00F
:101EB000B8F1000F0DD0E08E58B120688168890715
:101EC00007D535F8021BC160E08E401EE0864FF05A
:101ED0000008E08F58B120688168C90707D0C06842
:101EE0002BF8020BE08F401EE0874FF00108781CB2
:101EF00005D0FFF767FAA0EB0900B84246D2E08EA2
:101F00000028D5D1E08F0028D2D136E0FFE7216844
:101F100015F8010B0873E08E401EE08627E000BF35
:101F2000B8F1000F0DD0E08E58B1206881688907A4
:101F300007D515F8011B0173E08E401EE0864FF0B7
:101F40000008E08F58B120688168C90707D0C068D1
:101F50000BF8010BE08F401EE0874FF00108781C62
:101F600005D0FFF72FFAA0EB0900B8420ED2E08EA1
:101F70000028D5D1E08F0028D2D13B460122022192
:101F80002046CDF8009000F0EBFA08B103260FE0F0
:101F90004A463946204600F0ABFA18B10126202007
:101FA000606505E0A06818B92068C1688068009085
:101FB000012084F85100002084F85000304631E7B9
:101FC0007047704710B5040003D094F8390010B181
:101FD00007E0012010BD002084F83800204600F002
:101FE0000CF8022084F83900211D206800F09CFBC9
:101FF000012084F83900002010BD70470168CA68CC
:1020000042F00102CA600068016841F0010101600C
:1020100000207047704770B50446006801694FF0B2
:102020000005C943890715D4C168C943890711D47C
:10203000E91E016101202076206880698007204622
:1020400002D0FFF7E7FF04E000F098F8204600F028
:1020500096F8257620680169C943490717D4C168F5
:10206000C943490713D46FF00401016102202076AF
:102070002068806910F4407F204602D0FFF7CAFF35
:1020800004E000F07BF8204600F079F8257620681F
:102090000169C943090716D4C168C943090712D4A5
:1020A0006FF008010161042020762068C069800774
:1020B000204602D0FFF7AEFF04E000F05FF82046B4
:1020C00000F05DF8257620680169C943C90617D478
:1020D000C168C943C90613D46FF01001016108201B
:1020E00020762068C06910F4407F204602D0FFF7B8
:1020F00091FF04E000F042F8204600F040F8257619
:1021000020680169C943C90708D1C168C943C90723
:1021100004D1891E0161204600F032F8206801696F
:10212000C943090609D4C168C943090605D46FF03B
:10213000800101612046FFF743FF20680169C94320
:10214000490609D4C168C943490605D46FF0400166
:102150000161204600F01EF820680169C943890624
:102160000BD4C168C943890607D46FF0200101610F
:102170002046BDE87040FFF724BF70BD7047704730
:1021800000680349884201D1FFF722B97047000077
:10219000000001407047FEE770B5184D002208218D
:1021A0002846FFF70AF9164C20203223207017200A
:1021B0006070022221461348FFF762FD01220821C8
:1021C0002846FFF7FAF8002208212846FFF7F5F81D
:1021D000A02020703223012221460A48FFF750FD3B
:1021E00032230122A11C0748FFF7A2FC2846BDE8C4
:1021F000704001220821FFF7E0B800000010024003
:10220000060000205401002010B5012001F0CCFD93
:1022100004000BD000231A46194601F0F5FE0128F0
:102220000CD00A4900200860204610BD502080F3E1
:102230001188BFF34F8FBFF36F8FFEE7502080F3FD
:102240001188BFF34F8FBFF36F8FFEE74800002068
:1022500010B5012001F0A8FD040009D000231A46A2
:10226000194601F0D1FE01280AD00948046010BDCA
:10227000502080F31188BFF34F8FBFF36F8FFEE7BD
:10228000502080F31188BFF34F8FBFF36F8FFEE7AD
:102290006800002070B50E4C0546206878B1002318
:1022A0005A1E194601F0B6FD012810D1656020685C
:1022B000BDE8704000231A46194601F0A5BE502023
:1022C00080F31188BFF34F8FBFF36F8FFEE770BDB0
:1022D000680000201FB50021114800910191029172
:1022E0000E4A0391C0E9002101614FF00072816143
:1022F000826001620B4AC0E90A210124C160C46105
:1023000044610163FEF781FC02200094CDE90140A5
:1023100069460348FEF7D0FB1FBD000000200140C6
:10232000E40000200100000F0B480A494FF430225E
:1023300001601521416000218160C0E903124FF462
:1023400040124261017641768176C176017741770C
:10235000FEF765BE006400402C0100202DE9F04727
:1023600086B014216846FDF7D5FF45480024016872
:1023700041F010010160016801F010010591016850
:1023800041F080010160016801F080010591016860
:1023900041F001010160016801F00101059101684E
:1023A00041F002010160016801F00201059101683C
:1023B00041F0080101600068DFF8C88000F0080003
:1023C0000590002208214046FEF7F7FFDFF8B8909D
:1023D0004FF47446002231464846FEF7EEFFDFF820
:1023E000ACA04FF44077002239465046FEF7E5FF97
:1023F000082000900125CDE9015469464046039428
:10240000FEF7FEFE092000902148CDE90104DFF827
:10241000848069464046FEF7F3FE0620CDE90004BD
:10242000694640460294FEF7EBFE0096CDE9015462
:10243000694648460394FEF7E3FEE802CDE900044E
:10244000694648460294FEF7DBFE0097CDE9015449
:10245000694650460394FEF7D3FE00224E21062023
:10246000FFF73AF80620FFF72BF800224F2109204A
:10247000FFF732F80920FFF723F806B0BDE8F08730
:102480003038024000100240000C024000000240C0
:1024900000001110000402400B480A494FF400727A
:1024A00001604FF48271416000218160C16001616F
:1024B000C0E90512C1610162416281620A21C16203
:1024C000FFF7C2BA0030014054010020FEE7704718
:1024D0000907090E002806DA00F00F0000F1E020DD
:1024E00080F8141D704700F1E02080F80014704758
:1024F00038B50B46009204460022802100F030F8E7
:10250000002804D0606D40F020006065032038BDD5
:1025100070B5104D0446002208212846FEF74DFFF5
:102520000D4944F080003223087001220B48FFF768
:10253000A7FB094932230122891C0848FFF7F8FA52
:10254000012208212846FEF738FF0348801C007846
:1025500070BD000000100240060000205401002061
:102560002DE9F0411D4617460E460446DDF8188059
:1025700035E0681C33D02DB1FEF724FFA0EB080036
:10258000A8422CD32068416821F0E00141606068D6
:10259000B0F5827F0BD1A068B0F5004F02D0B0F546
:1025A000806F04D12068016821F040010160A06AB9
:1025B000B0F5005F0AD1206801684DF6FF72114046
:1025C00001602068016841F400510160012084F835
:1025D0005100002084F850000320BDE8F0812068FD
:1025E000806836EA000004D00020B842C1D1002043
:1025F000F3E70120F9E7000010B50020FFF704FE23
:10260000034C60600020FFF7FFFDA06010BD0000DC
:102610004C00002010B5502080F31188BFF34F8F7D
:10262000BFF36F8F01F06CFE18B104494FF080507A
:102630000860002080F3118810BD000004ED00E068
:1026400030B593B030216846FDF764FE14210CA824
:10265000FDF760FE1A480025016841F080510160D5
:10266000006800F0805011901648016841F48041E4
:1026700001600068022400F4804011900120009065
:10268000000401908001CDE90640082008904FF435
:10269000A870CDE9090407200B906846FFF746F8BB
:1026A0000CA90F2081E831004FF4A0500F90E002F8
:1026B000109005210CA8FEF741FF13B030BD0000BB
:1026C00040380240007000401048016841F4700139
:1026D00001600F48016841F0010101600C4A0021CE
:1026E0000832116002680B4B1A400260031D0A4A4F
:1026F0001A60026822F48022026005480C300160F2
:1027000002495806803908607047000088ED00E0F3
:1027100000380240FFFFF6FE103000240148FFF7AA
:102720007ABC0000AC010020F0B50268234B244DB8
:10273000244E254F254C4FF0804C984209D06045DF
:1027400007D0A84205D0B04203D0B84201D0A04281
:1027500004D122F0700E4A6842EA0E0298421BD061
:10276000604519D0A84217D0B04215D0B84213D056
:10277000A04211D0164DA8420ED0164DA8420BD043
:10278000154DA84208D0154DA84205D0144DA842B9
:1027900002D0144DA84203D122F44075CA682A43DE
:1027A00002608A68C2620A688262984201D0A042CE
:1027B00001D10969016301214161F0BD00000140BF
:1027C0000004004000080040000C004000040140EC
:1027D0000040014000440140004801400018004012
:1027E000001C0040002000402DED0C8B82B000F05A
:1027F0008AFD694C4FF400459FED68AB9FED69BBC6
:102800009FED6ACB9FED6BDBDFED6C9A4FF4167694
:1028100000902820FFF77CFE20702920FFF778FE2B
:102820006070217801EB00206061A84202DBA0F516
:1028300080306061FDF701FFB0EE4A8AF0EE6A8AEF
:1028400053EC182BFDF718FEC4E908012A20FFF706
:102850005FFEA0702B20FFF75BFEE070A17801EB1C
:102860000020A061A84202DBA0F58030A061FDF746
:10287000E4FE53EC182BFDF7FFFDC4E90A012C2000
:10288000FFF746FE20712D20FFF742FE607121798F
:1028900001EB0020E061A84202DBA0F58030E0619E
:1028A000FDF7CBFE53EC182BFDF7E6FD41EC100BCA
:1028B00084ED0C0B53EC102BFDF7DEFD94ED080BB3
:1028C00041EC180B53EC102B51EC100BFDF7D4FD21
:1028D00053EC182BFDF729FD41EC100B00F038FBF1
:1028E000B0EE401AF0EE601A94ED0A0B00F030FAE8
:1028F00053EC1B2B51EC100BFDF7BEFD53EC1C2BC6
:10290000FDF72CFEC4E90E0194ED0C0B53EC102BDB
:1029100051EC100BFDF7B0FD94ED0A0B41EC180BD8
:1029200053EC102B51EC100BFDF7A6FD53EC182BBC
:10293000FDF7FBFC41EC100B00F00AFBB0EE401A77
:10294000F0EE601A94ED080B00F002FA53EC1B2B2A
:1029500051EC100BFDF790FD53EC1D2BFDF7FEFD28
:1029600041EC100B84ED100BFDF778FE94ED0E0B8F
:1029700009EE100A51EC100BFDF770FE00EE100A84
:10298000B0EE691AF0EE490AFEF766F8314668467D
:1029900000F0B2FC3DE70000000000200000000055
:1029A0000000103F0000000000806640A7E8482EAD
:1029B000FF210940A7E8482EFF2109C000000000C0
:1029C000FEE7000070B50E4C0546A06878B1002304
:1029D0005A1E194601F01EFA012810D12570A06870
:1029E000BDE8704000231A46194601F00DBB502087
:1029F00080F31188BFF34F8FBFF36F8FFEE770BD79
:102A00004C00002070B50E4C0546606878B100237C
:102A10005A1E194601F0FEF9012810D1A56160681F
:102A2000BDE8704000231A46194601F0EDBA502067
:102A300080F31188BFF34F8FBFF36F8FFEE770BD38
:102A40004C00002003B401984100009850EAC120D6
:102A500018BF04204A0D18BF40F0010040F2FF7279
:102A6000B2EB515F08BF40F00200012808BF05200B
:102A700002B070470000000070B59B482DED020BBE
:102A80002DED068B079D25F00044A04218DC9748E9
:102A9000844202DC0AD1069840B19DED060BBDECE4
:102AA000068B02B0BDE8704000F00BBB002DCCBF20
:102AB0009FED8F0B9FED900BBDEC068B02B070BDB0
:102AC0008F48A04215DD8F48A042D8BF4FF0FF3499
:102AD00058DD9DED060B51EC100BFFF7B3FF0428FA
:102AE00008BF00F005FB9DED060BBDEC068B02B0A8
:102AF00070BD9DED060B51EC100B00F043FBCDE9D2
:102B0000060181489FED828BA0423CDD8248A042B5
:102B10001FDD00249FED82AB9DED060B53EC1A2BBD
:102B200051EC100BFDF701FC9DED060B41EC190B70
:102B300053EC1A2B51EC100BFDF79EFC53EC182BA9
:102B4000FDF794FC53EC192BFDF708FDCDE90601C8
:102B500049E09DED060B012453EC182B51EC100BB2
:102B6000FDF7E3FB9DED060B41EC190B53EC182B25
:102B700051EC100BFDF77AFC53EC192BFDF7EEFC32
:102B8000CDE906012FE06848A0421FDD02249FED39
:102B9000689B9DED060B53EC192B51EC100BFDF7C8
:102BA0006BFC53EC182BFDF7C0FB9DED060B41ECC5
:102BB000180B53EC192B51EC100BFDF757FC53EC91
:102BC000182BFDF7CBFCCDE906010CE09DED060BC3
:102BD000032453EC102B9FED580B51EC100BFDF719
:102BE000BDFCCDE906019DED060B53EC102B51EC1D
:102BF000100BFDF741FC41EC180B53EC182BFDF7C3
:102C00003BFC41EC190B4E480621B0EE490AF0EEB0
:102C1000690A784400F0D9F953EC182B51EC100BE9
:102C2000FDF72AFC41EC180B4648B0EE490AF0EEDD
:102C3000690A0521784400F0C8F953EC192B51ECCE
:102C4000100BFDF719FC41EC100B51EC180B53EC79
:102C5000102B002C0EDAFDF768FB9DED061B53ECE4
:102C6000112BFDF709FC9DED061B53EC112BFDF715
:102C700000FC35E0FDF759FB9DED061B53EC112BD5
:102C8000FDF7FAFB41EC100B2F48784400EBC40031
:102C900090ED001B51EC100B53EC112BFDF7E6FBF4
:102CA0009DED061B53EC112BFDF7E0FB41EC100BE7
:102CB0002648784400EBC40090ED001B51EC100B4B
:102CC00053EC112BFDF7D5FB41EC100B002DA2BFEF
:102CD000BDEC068B02B070BD51EC100B81F00041D1
:102CE00041EC100B01E70000000010440000F07FF1
:102CF000182D4454FB21F93F182D4454FB21F9BFF2
:102D00000000DC3F0000203E0000F33F0000000018
:102D1000000000000000F03F0000E63F000000005F
:102D200000000000000000400080034000000000A0
:102D3000000000000000F83F000000000000F0BFAD
:102D4000021A0000B819000042190000FA18000029
:102D500070B56F4E2DED040B2DED048B82B0DDF8B8
:102D600024C0DDE907235C422CF000411C4341EA0A
:102D7000D474069D22F00040B44205D86C422C4326
:102D800040EAD474B4420BD99DED081B9DED060BAF
:102D900002B0BDEC048B04B0BDE8704000F09BB9FC
:102DA000ACF14054A4F17F641C430BD0022404EA2C
:102DB000AC7444EAD27405439FED578B9FED582BBA
:102DC00007D015E09DED060B51EC100B00F0B6F9A5
:102DD00042E0002C11BF012C9DED060B02B0BDECB2
:102DE000048B04BF04B070BD022C38D0032C3BD040
:102DF0000B439FED4D1B9FED4E0B0AD0B14218D1F6
:102E0000B04209D121F0804120F080400991079023
:102E10000FE0002A15DA10E0474B7B44002C08BF76
:102E200093ED000B0DD0012C10D0022C17D0032CE9
:102E30001AD0B0421DD1002A03DAB0EE410AF0EEFA
:102E4000610A02B0BDEC048B04B070BD93ED000BC1
:102E500051EC100B81F0004141EC100BF1E7B0EEAA
:102E6000480AF0EE680AECE7B0EE420AF0EE620AB9
:102E7000E7E7401A00159FED329B3C28C8BF8DED57
:102E8000000B17DCBCF1000FBCBF10F13C0F8DED47
:102E9000009B0FDB9DED080B53EC102B9DED060BFB
:102EA00051EC100BFDF75AFB00F06CF900F046F9FD
:102EB000CDE90001B4B1012C10D0022C9FED220B02
:102EC00053EC102B9DED000B51EC100B19D0FDF7BE
:102ED000CDFA53EC182BFDF7C9FABDE7019880F045
:102EE000004001909DED000B53EC192B51EC100BA1
:102EF000FDF7E6FC04BF022000F01AF99DED000B7F
:102F00009FE7FDF7B3FA53EC182BFDF7B2FAA3E7EE
:102F10000000F07F00000000182D4454FB21094000
:102F2000182D4454FB2109C0182D4454FB21F9BF2E
:102F3000182D4454FB21F93F2A180000000000001E
:102F40000000000000000000075C143326A6A13C2E
:102F500000B52DED048BB0EE409AF0EE609A83B090
:102F600051EC190BFDF75BFC41EC180B18EE100A45
:102F700018EE901A8DED008B002818BF0120084331
:102F800020F00040C0F17F6000F1E040C00F14D09D
:102F900019EE101A19EE900A8DED009B002918BF4A
:102FA0000121084320F00040C0F17F6000F1E040C3
:102FB000C00F04BF012000F0BBF8B0EE480A03B018
:102FC000F0EE680ABDEC048B00BD70B504462DED33
:102FD000028B4D1E00EBC500B0EE408AF0EE608A19
:102FE00090ED000B35F0060017D053EC182B51EC88
:102FF000100BFDF741FA41EC100B6D1E04EBC50000
:1030000090ED001B51EC100B53EC112BFDF78DF9DB
:1030100041EC100B35F00600E7D1022D36D0042D1F
:103020001CD0062D1CBFBDEC028B70BD53EC182BC1
:1030300051EC100BFDF720FA94ED0A1B53EC112B09
:10304000FDF773F953EC182BFDF716FA94ED081BF6
:1030500053EC112BFDF769F941EC100B53EC182BD5
:1030600051EC100BFDF708FA94ED061B53EC112BF5
:10307000FDF75BF953EC182BFDF7FEF994ED040B0B
:1030800053EC102BFDF751F941EC100B53EC182BBE
:1030900051EC100BFDF7F0F994ED021B53EC112BE2
:1030A000FDF743F953EC182BFDF7E6F994ED001BFF
:1030B00053EC112BFDF739F9BDEC028B41EC100BF1
:1030C00070BD10B553EC102B51EC100BFDF72DF922
:1030D00041EC100B10BD10B553EC112B51EC100B43
:1030E000FDF723F941EC100B10BD000000000000BB
:1030F0009FED050B10B553EC102B51EC100BFDF7A9
:10310000BBF941EC100B10BD0000000000000010E6
:1031100002E008C8121F08C1002AFAD170477047A0
:10312000002001E001C1121F002AFBD170470000FE
:103130000149086070470000E000002010B541EC34
:10314000100BFFF799FC51EC100B10BD00F0DBF8F1
:10315000FFF77EF80A4C4FF6FF7603250023324630
:103160001946206900F056FE0128F7D1E068401C9E
:1031700090FBF5F105FB1100E060FFF78BF8EDE740
:103180000000002082B0CDE9000121F00040019054
:103190009DED000B02B051EC100B704786B000F0B3
:1031A000B2F8002401250226C8274FF4C8780590FC
:1031B000CDE90145CDE9036401A90D48FDF77CFC8B
:1031C0000B48FDF7CFFD05210948FDF779FD50B902
:1031D0000748FDF717FD0023FF221946009700F06E
:1031E00081F8FFF70FFC414605A800F085F8DFE7FE
:1031F000E4000020EFF30580002800D00120704794
:103200001CB5FEF7EDF8FFF7F7F9FFF719FAFFF72E
:10321000A5F8FFF75FF8FFF73FF9FFF785F8FEF72E
:10322000BBFF03220021012000F0D0FD144900243F
:10323000234608610420CDE90004802211A11A4828
:1032400001F016F80320CDE900040023802217A125
:103250001C4801F00DF80220CDE900040023802273
:1032600012A1194801F004F800940023802217A14C
:103270001B48019400F0FCFF00F0A4FCFEE70000F6
:10328000000000206C65637475726120706F746556
:103290006E63696F6D6574726F204769726F205637
:1032A0006F6C616E746500009D3100086C6563741D
:1032B0007572612073656E736F72206167617272DF
:1032C00061646F00993C0008E92700085461726549
:1032D00061206573706F7261646963610000000052
:1032E0004D31000810B5401A029CE41A6043511A8F
:1032F00090FBF1F0184410BD10B501B9012100F0A8
:10330000A9FB002010BD10B5FFF774FF18B1BDE890
:10331000104000F0EDBFBDE8104000F0E3BF00003A
:103320002DE9F041184C0F460546E6682068001D5F
:1033300000F0B0FA38B9206890F82C1001208840CD
:10334000216981432161681C07D137B12168BDE83B
:10335000F0410E48091D00F0D5BA20683544B54249
:103360004560216805D2A06BBDE8F041091D00F061
:10337000B1BA606B091D00F0ADFAA06A854200D2B7
:10338000A562BDE8F081000080000020C40200209A
:103390002DE9F041054600F0C1FA2E4CA068401C12
:1033A000A06020682C4F10B1606940B32DE025600B
:1033B000A068012829D1002606EB860007EB8000D3
:1033C00000F07AFA761C072EF6D323488C3000F0F2
:1033D00073FA2148A03000F06FFA1F48B43000F0B3
:1033E0006BFA1D48C83000F067FA1B48DC3000F06B
:1033F00063FA19488C3060631430A06305E02068DC
:10340000E96AC06A884200D82560606A401C606230
:10341000E96A0120226988401043206101EB8100A4
:1034200007EB8000291D00F06DFA00F097FA606943
:1034300000280CD02068E96AC06A884207D2074990
:103440004FF080500860BFF34F8FBFF36F8FBDE820
:10345000F081000080000020E801002004ED00E081
:1034600070B5114E114C17E000F0E0FB3068B8B1B8
:1034700001F030F800F052FAF068C568281D00F03D
:1034800009FAA068401EA0606068401E606000F0FD
:1034900065FA284600F055F860680028E4D170BD50
:1034A00001F018F8F8E70000B002002080000020CA
:1034B00030B4026C0B46002A0BD0C1681144C160C5
:1034C0004468A14201D30168C16030BC1846FCF7D2
:1034D00008BF30BC70472DE9F041856B17460446A4
:1034E0000026026C82B1C7B1E068FCF7FAFEE16821
:1034F000206C091AE1602268914202D26168081AC0
:10350000E060022F16D017E02068A8B9606800F0CC
:103510005BFF0646002060600EE0A068FCF7E1FE5D
:10352000216CA0680844A0606168884204D32068C8
:10353000A06001E005B16D1E6D1CA5633046BDE8BD
:10354000F08110B50446006B00F01CFA2046BDE87F
:10355000104000F017BA000010484FF470514207B5
:1035600006D0C01D0D4920F00700411AC1F5705169
:103570000B4A00230144C2E900030839103A21F044
:10358000070111604B600B600B1AC0E900139360D8
:103590004FF000405360D06070470000D802002018
:1035A000CC000020074C4FF08056074DFFF758FF26
:1035B00020680128FAD92E60BFF34F8FBFF36F8FB9
:1035C000F4E70000E801002004ED00E02DE9F047F9
:1035D0009A46DDE9098481466FF00303206B03EB13
:1035E00082021044089D20F00706700707D0502083
:1035F00080F31188BFF34F8FBFF36F8FFEE723185F
:103600000A5C83F834200A5C12B1401C1028F6D3FF
:10361000002784F84370072D00D30625E562C4E92E
:103620001157201D00F053F904F1180000F04FF974
:103630002461C5F107006462A061E76484F85070FA
:1036400052464946304600F00FF92060B8F1000FAD
:1036500001D0C8F80040BDE8F087000030B511493E
:1036600000E011460A688242FBD34B685C18844232
:1036700003D1406818444860084643681C189442C7
:1036800009D1084C103C2468A24209D052681A445F
:1036900042600A6812680260814200D0086030BD52
:1036A0000460F9E7CC00002010B5044600F036F9BC
:1036B000A06B28B15FF0000400F050F9204610BD67
:1036C0000124F9E70648416B096829B1416BC968D3
:1036D000C9684968816270474FF0FF31FAE700001E
:1036E0008000002008484068401C4FF0500080F3E4
:1036F000118804D0BFF34F8FBFF36F8FFEE7BFF386
:103700004F8FBFF36F8FFEE7D40000202DE9F0410B
:10371000044600F003F994F9455004F1240609E049
:10372000606A48B1304600F09BFE08B100F0D8F95D
:103730006D1E6DB2002DF3DC4FF0FF3684F845604E
:1037400000F00CF900F0EAF894F9445004F1100785
:1037500009E0206948B1384600F082FE08B100F067
:10376000BFF96D1E6DB2002DF3DC84F84460BDE836
:10377000F04100F0F3B800002DE9F04105460027C4
:1037800000F054FA314E306808B9FFF7E5FEF068F2
:1037900005424BD1C5B3083568070ED005F00700C8
:1037A000C0F108000544680707D0502080F3118855
:1037B000BFF34F8FBFF36F8FFEE72DB37068854265
:1037C00034D82248103001460C6801E020460C46EF
:1037D0006168A94202D221680029F7D131688C4280
:1037E00024D007682168016060680837411B1029F0
:1037F0000FD96019420708D0502080F31188BFF319
:103800004F8FBFF36F8FFEE710E041606560FFF7F9
:1038100025FF61687068401A7060B268904200D2FB
:10382000B060F06801430020C4E9000100F052FEDE
:10383000780707D0502080F31188BFF34F8FBFF374
:103840006F8FFEE73846BDE8F0810000BC00002025
:103850000449086818B10868826C521C82640868C0
:10386000704700008000002010B5031F4FF08074E7
:103870001C601B1F21F001011960191F044B0B6014
:1038800014390A60091F6FF0020244380A6010BD43
:10389000E5360008D0E9013201699A60D0E90123D8
:1038A0005A604A68824201D182684A6000220261FD
:1038B0000868401E0860704700F108014FF0FF32B1
:1038C000C0E90112C160016100210160704700215F
:1038D0000161704730B50B685A1C02D000F1080234
:1038E00002E0026904E02246546825689D42FAD944
:1038F00053684B6099608A60516008610168491C97
:10390000016030BD42684A6093688B60936859607B
:10391000916008610168491C01607047502080F384
:103920001188BFF34F8FBFF36F8F0A494868401C5F
:10393000486001280CD10848006810F0FF0F07D03C
:10394000502080F31188BFF34F8FBFF36F8FFEE7D6
:1039500070470000D400002004ED00E008494868EA
:1039600028B1401E486001D180F311887047502073
:1039700080F31188BFF34F8FBFF36F8FFEE7000016
:10398000D400002070B5002827D0144DA0F1080401
:103990006168E868014207D1502080F31188BFF3C5
:1039A0004F8FBFF36F8FFEE722683AB1502080F34C
:1039B0001188BFF34F8FBFF36F8FFEE781436160C4
:1039C00000F034F960686968084468602046FFF7D1
:1039D00045FEBDE8704000F07DBD70BDBC0000201C
:1039E00006484FF47A710068B0FBF1F14FF0E02027
:1039F000491E416107210161704700007C000020E1
:103A000010B5FCF727FC114910280ED300F1E02077
:103A100090F8F0030A78904207D2502080F3118882
:103A2000BFF34F8FBFF36F8FFEE7094800688968C7
:103A300000F4E060884207D9502080F31188BFF37A
:103A40004F8FBFF36F8FFEE710BD0000D400002042
:103A50000CED00E070B50D4604000BD095B11E4A88
:103A6000106BB8B1502080F31188BFF34F8FBFF3B4
:103A70006F8FFEE7502080F31188BFF34F8FBFF3A5
:103A80006F8FFEE7502080F31188BFF34F8FBFF395
:103A90006F8FFEE700F0CAF8D26823685919934285
:103AA00004D98B420AD9914202D807E08B42FAD955
:103AB000881A21600021FFF733FC00E0216000F04C
:103AC00009FD002807D105494FF080500860BFF379
:103AD0004F8FBFF36F8F70BD8000002004ED00E0BA
:103AE00001490120C86170478000002010B50C46D4
:103AF00050B1094909681831FFF7ECFE2046BDE8CE
:103B000010400121FFF70CBC502080F31188BFF357
:103B10004F8FBFF36F8FFEE78000002070B5040069
:103B200039D01D4DE06A2968C96A884233D2A0693C
:103B3000002804DB2868C06AC0F10700A061E16AC0
:103B4000164E01EB8101606906EB810188421FD1AD
:103B5000201DFFF79FFE012150B9E06A00EB8002B3
:103B600056F8222022B92A6901FA00F082432A611C
:103B70002868C06AE0622A6981401143296100EB2C
:103B8000800006EB8000211DBDE87040FFF7BABE43
:103B90002868C06AE06270BD80000020E801002053
:103BA00028B107490A6A0260C9684160704750201D
:103BB00080F31188BFF34F8FBFF36F8FFEE70000D4
:103BC000800000201CB515480024CDE900402346A4
:103BD000802213A1144800F04BFB012809D0401C9F
:103BE0001AD1502080F31188BFF34F8FBFF36F8F2E
:103BF000FEE7502080F31188BFF34F8FBFF36F8F24
:103C000006484FF0FF312C38816201214161C460C8
:103C1000BDE81C4000F058B81CBD0000AC000020FE
:103C200049444C4500000000A53500080248016BDE
:103C3000491C016370470000800000201448016B9C
:103C400011B10121C16170470021C1610169B1FA5F
:103C500081F1C1F11F0101EB81020E4951F82230BF
:103C60006BB101EB820101F108034A6852684A60B6
:103C70009A4201D152684A60D16801607047502071
:103C800080F31188BFF34F8FBFF36F8FFEE7000003
:103C900080000020E801002008B5FFF734FB094D43
:103CA0004FF480744FF4FA76009021462846FDF7D1
:103CB0007FFB00B10120FEF785FE31466846FFF725
:103CC0001BFBF2E7000402401CB532480168324A8F
:103CD000914207D1502080F31188BFF34F8FBFF37B
:103CE0006F8FFEE700682C49491E884207D150209B
:103CF00080F31188BFF34F8FBFF36F8FFEE7274923
:103D000008780190FF20087008788DF800009DF871
:103D100000009DF8002000F0F000904207D05020F5
:103D200080F31188BFF34F8FBFF36F8FFEE79DF8CD
:103D300000001B4A00F0500010700720906005E062
:103D40009DF800305B008DF80030401E9DF800307B
:103D50001B06F5D4000200F4E06090600198087042
:103D60000C482030016841F470010160016841F0A5
:103D700070410160FFF734FE00205060FCF730FA1C
:103D80000848016841F040410160FCF719FA002041
:103D90001CBD000000ED00E071C20F4100E400E036
:103DA000D400002034EF00E010B5024600210120CD
:103DB00000F00CF8041E07D00021416001600B46A2
:103DC0000A46C16000F020F9204610BD70B50E46CD
:103DD000050013D0D6B105FB06F04830FFF7CCFC48
:103DE000040009D004F1480120468EB10160C0E909
:103DF0000F56012100F0C4F8204670BD502080F31A
:103E00001188BFF34F8FBFF36F8FFEE70020E4E709
:103E10000060ECE72DE9FF4F002683B09B468A4601
:103E2000040003D0BAF1000F08D011E0502080F355
:103E30001188BFF34F8FBFF36F8FFEE7206C38B14F
:103E4000502080F31188BFF34F8FBFF36F8FFEE7D1
:103E500000F03AFADFF824814FF000094FF0805764
:103E600048B9059838B1502080F31188BFF34F8FBF
:103E7000BFF36F8FFEE7FFF751FDA56B45B35146CA
:103E80002046E668FFF714FBBBF1000F13D0E66095
:103E9000606A50B104F1240000F0E2FA28B1C8F8D9
:103EA0000070BFF34F8FBFF36F8FFFF757FD0120F7
:103EB00007B0BDE8F08F6D1EA563206810B9FFF74D
:103EC000C7FC606020690028EFD004F11000E3E730
:103ED000059808B11EB106E0FFF740FD27E06846EF
:103EE000FFF75EFE0126FFF739FDFFF79FFEFFF7A4
:103EF00015FD94F94400401C01D184F8449094F9D4
:103F00004500401C01D184F84590FFF727FD05A925
:103F1000684600F077F9002820460AD0FFF7F6FB44
:103F200000F0D8FA2046FFF7BFFB0028A3D00020FE
:103F3000BEE7FFF7B9FBD8B1206830B9FFF7EEFC58
:103F40006068FFF7EBFDFFF709FD04F12400059918
:103F5000FFF7CCFD2046FFF7D9FB00F0BBFA0028A5
:103F600089D1C8F80070BFF34F8FBFF36F8F82E71E
:103F70002046FFF7CBFB00F0ADFA7CE704ED00E054
:103F800070B50D46040025D0FFF7C8FCD4E90F201A
:103F9000216802FB001161600021A1632168A1601A
:103FA0000A46D4E90F01401E00FB0121E1602146D1
:103FB0004FF0FF3001F8440F487004F110008DB14C
:103FC000FFF77AFC04F12400FFF776FCFFF7C6FC4C
:103FD000012070BD502080F31188BFF34F8FBFF3D5
:103FE0006F8FFEE721690029F0D000F039FA002830
:103FF000ECD004494FF080500860BFF34F8FBFF3FF
:104000006F8FE3E704ED00E02DE9FF4782B01D4626
:104010008A464FF00008040003D0BAF1000F08D020
:1040200011E0502080F31188BFF34F8FBFF36F8FE3
:10403000FEE7206C38B1502080F31188BFF34F8F1A
:10404000BFF36F8FFEE7022D0AD1E06B012807D086
:10405000502080F31188BFF34F8FBFF36F8FFEE7BF
:1040600000F032F93F4F4FF000094FF0805648B949
:10407000049838B1502080F31188BFF34F8FBFF3FD
:104080006F8FFEE7FFF74AFCA06BE16B884207D316
:10409000022D05D00498D0B1B8F1000F1AD01EE05F
:1040A0002A4651462046FFF716FA616A19B104F113
:1040B000240000F0D5F920B13E60BFF34F8FBFF36D
:1040C0006F8FFFF74BFC012006B0BDE8F087FFF7CC
:1040D00045FC22E06846FFF763FD4FF00108FFF75B
:1040E0003DFCFFF7A3FDFFF719FC94F94400401CC9
:1040F00001D184F8449094F94500401C01D184F822
:104100004590FFF72BFC04A9684600F07BF830B11E
:104110002046FFF7FBFA00F0DDF90020D4E7FFF7B7
:10412000FDFBA06BE16B884213D1FFF717FC04F194
:1041300010000499FFF7DAFC2046FFF7E7FA00F0D9
:10414000C9F900289ED13E60BFF34F8FBFF36F8F38
:1041500098E7FFF703FC2046FFF7D8FA00F0BAF91A
:1041600090E7000004ED00E070B50E46040009D0B1
:10417000206C78B1502080F31188BFF34F8FBFF3CC
:104180006F8FFEE7502080F31188BFF34F8FBFF38E
:104190006F8FFEE7206848B9606838B1502080F31F
:1041A0001188BFF34F8FBFF36F8FFEE7FFF728FC37
:1041B0005020EFF3118580F31188BFF34F8FBFF3C9
:1041C0006F8FA16BE06B884218D994F94500491CA8
:1041D000A163411C04D0401C84F8450001200EE07E
:1041E000606A0028FAD004F1240000F039F90028B0
:1041F000F4D0002EF2D001203060EFE7002085F3EC
:10420000118870BD70B50D46040019D005B3FFF7D5
:1042100085FB164AD1682868431C0FD02368126AB0
:10422000934202D062688A421AD96268891A81422E
:1042300016D2401A28602046FFF7B2FC002410E096
:10424000502080F31188BFF34F8FBFF36F8FFEE7CD
:10425000502080F31188BFF34F8FBFF36F8FFEE7BD
:104260000124FFF77BFB204670BD0000800000208A
:104270002DE9FF5F8346DDE90E87994616468A469B
:104280009000FFF779FA05001AD05420FFF774FA6E
:10429000040012D025630021CDE90241CDE9008759
:1042A0004B46324651465846FFF790F92046FFF7F5
:1042B0006FF8012004B0BDE8F09F2846FFF762FBCD
:1042C0004FF0FF30F6E700000548416919B1006B77
:1042D00018B100207047012070470220704700008D
:1042E000800000200148C068704700008000002066
:1042F00010B5FFF785FB0148C06810BD80000020A5
:104300002DE9F0412E4C0027206B40B1A069401CE4
:10431000A061E06900B101273846BDE8F081E66898
:10432000761CE66013D1606B006838B1502080F3D2
:104330001188BFF34F8FBFF36F8FFEE7606BA16BE8
:104340006163A063206A401C2062FFF7BBF9A06A8A
:10435000DFF87080864209D3606B006880B1606BC3
:10436000C068C568686886420DD2A0622068C06ACD
:1043700000EB800158F821000128CAD90127C8E7BD
:104380004FF0FF30F1E7281DFFF784FAA86A18B153
:1043900005F11800FFF77EFAE86A012122698140E1
:1043A0001143216100EB800108EB8100291DFFF71B
:1043B000A9FAE86A2168C96A8842CDD30127CBE708
:1043C00080000020E801002070B504004FF00001DB
:1043D00040D0214D2868844207D0502080F31188B6
:1043E000BFF34F8FBFF36F8FFEE7A06C38B1401E55
:1043F000A064636CE26A9A422CD040B12AE050205B
:1044000080F31188BFF34F8FBFF36F8FFEE7201D3E
:10441000FFF740FA114A012150B9E06A00EB80032E
:1044200052F8233023B92B6901FA00F083432B6142
:10443000606CE062C0F10700A061E06A2B69814016
:104440001943296100EB800002EB8000211DFFF77A
:1044500059FA0121084670BD80000020E8010020C3
:104460002DE9F041C068C468ACB104F118000746FA
:10447000FFF710FA154D286B0126A0B139461448F4
:10448000FFF740FAE06A2968C96A88421CD901200E
:10449000EE61BDE8F081502080F31188BFF34F8FAB
:1044A000BFF36F8FFEE7201DFFF7F4F9E16A2A6979
:1044B00006FA01F01043286101EB81000449B43988
:1044C00001EB8000211DDBE70020E2E780000020F7
:1044D0009C0200202DE9F0472C4D00242746286B34
:1044E00038B1FFF71BFA286B401E2863286B40B1D8
:1044F00046E0502080F31188BFF34F8FBFF36F8FDA
:10450000FEE7A968224E0120D1B3A6F1B409804686
:104510003068E8B1F068C46804F11800FFF7BAF930
:10452000201DFFF7B7F9E06A2A6908FA00F1114384
:10453000296100EB800109EB8100211DFFF7E2F901
:10454000E06A2968C96A8842E2D3C5F81C80DFE7BF
:104550000CB1FFF7B7F8AC6944B14646FFF7D0FE9F
:1045600000B1EE61641EF9D10020A861E86938B19C
:104570000849012738070860BFF34F8FBFF36F8FDB
:10458000FFF7ECF93846BDE8F08700008000002016
:104590009C02002004ED00E000000000000000008C
:1045A00001020304060708090000000001020304D9
:1045B0004FBB610567ACDD3F182D4454FB21E93F3B
:1045C0009BF681D20B73EF3F182D4454FB21F93F2A
:1045D000E2652F227F2B7A3C075C143326A6813CB0
:1045E000BDCBF07A8807703C075C143326A6913C5B
:1045F000C4EB98999999C9BF711623FEC671BCBFC7
:104600006D9A74AFF2B0B3BF9AFDDE522DDEADBF2E
:104610002F6C6A2C44B4A2BF0D5555555555D53F46
:10462000FF8300922449C23F6E204CC5CD45B73F61
:10463000513DD0A0660DB13FEB0D76244B7BA93FD9
:1046400011DA22E33AAD903F0000000000000000C4
:104650007046000800000020E4000000103100084F
:1046600054470008E4000020F44100002031000815
:10467000000000000000000000000000000000003A
:10468000000000000000000000000000000000002A
:10469000000000000000000000000000000000001A
:1046A000000000000000000000000000000000000A
:1046B00000000000000000000000000000000000FA
:1046C00000000000000000000000000000000000EA
:1046D00000000000000000000000000000000000DA
:1046E0000100000010000000000000000024F400A1
:1046F00000000000000000000000000000000000BA
:1047000000000000000000000000000000000000A9
:104710000000000000000000000000000000000099
:104720000000000000000000000000000000000089
:104730000000000000000000000000000000000079
:104740000000000000000000AAAAAAAA00000000C1
:044750000000000065
:040000050800018965
:00000001FF
